:100000000C942A000C94F0000C94F0000C94F00076
:100010000C94F0000C94F0000C94F0000C94F000A0
:100020000C94F0000C94F0000C94F0000C94F00090
:100030000C94F0000C94F0000C94F0000C94F00080
:100040000C94F0000C94F0000C94F0000C94F00070
:100050000C94F00011241FBECFE5D8E0DEBFCDBF69
:10006000E4E5F0E040E017C0B591A5913591259108
:10007000059107FD0CC095918591EF01F92FE82FAF
:1000800005900D92A217B307D9F7FE0104C01D9287
:10009000A217B307E1F7E435F40731F70E94D70060
:0800A0000C945200F894FFCF0C
:1000A800662379F06130D1F447B321E030E0B9013B
:1000B80002C0660F771F8A95E2F7CB01842B87BBB6
:1000C800089547B321E030E0B90102C0660F771FF9
:0E00D8008A95E2F7CB018095842387BB0895BB
:1000E6008823A9F08130C1F461E085E00E945400C4
:1000F60061E084E00E94540061E087E00E945400C1
:100106008DB183608DB98EB18EB96C9A05C061E0F0
:0C01160086E00E9454006C986E9A0895D8
:10012200CF93C82FC19A8BB38F709C2F907F892B4E
:100132008BBB0E94E3008BB3282F2F7030E1C39F4B
:10014200C0011124822B8BBB0E94E300CF91089542
:10015200CF93C82FC1988BB38F709C2F907F892B20
:100162008BBB0E94E3008BB3282F2F7030E1C39F1B
:10017200C0011124822B8BBB0E94E300CF91089512
:100182008AB3806F8ABB87B3866087BB82E00E9496
:10019200A90088E20E94A9008FE00E94A90086E0DF
:0C01A2000E94A90082E00E94A9000895BC
:1001AE000E94C10080E00E947300C7E0CFB90E9498
:0801BE00EC000E949100FACF51
:1001C600C29A8FE19EE40197F1F700C00000C29841
:0201D60008958A
:0801D800779BFECF8FB1089563
:0401E0000C9400007B
:00000001FF
