:100000000C942A000C9482000C9453010C9453011C
:100010000C9453010C9453010C9453010C94530110
:100020000C9453010C9453010C9453010C94530100
:100030000C9453010C9453010C9453010C945301F0
:100040000C9453010C9453010C9453010C945301E0
:100050000C94530111241FBECFE5D8E0DEBFCDBF05
:10006000E4E5F0E040E017C0B591A5913591259108
:10007000059107FD0CC095918591EF01F92FE82FAF
:1000800005900D92A217B307D9F7FE0104C01D9287
:10009000A217B307E1F7E435F40731F70E94030133
:0800A0000C945200F894FFCF0C
:1000A800982F863029F0873051F08530D1F410C070
:1000B80085B78C7F85BF85B7682B65BF12C085B7AC
:1000C8008C7F85BF85B7660F660F682B65BF09C033
:1000D800633021F484B7806484BF03C084B78F7B06
:1000E80084BF4BB721E030E0B90102C0660F771F2B
:0C00F8009A95E2F7CB01842B8BBF089592
:100104001F920F920FB60F9211242F933F934F9388
:100114005F936F937F938F939F93AF93BF93EF936B
:10012400FF930E942501FF91EF91BF91AF919F91A1
:100134008F917F916F915F914F913F912F910F908C
:080144000FBE0F901F901895EB
:10014C00662379F06130D1F447B321E030E0B90196
:10015C0002C0660F771F8A95E2F7CB01842B87BB11
:10016C00089547B321E030E0B90102C0660F771F54
:0E017C008A95E2F7CB018095842387BB089516
:10018A00662379F06130D1F444B321E030E0B9015B
:10019A0002C0660F771F8A95E2F7CB01842B84BBD6
:1001AA00089544B321E030E0B90102C0660F771F19
:0E01BA008A95E2F7CB018095842384BB0895DB
:1001C800662379F06130D1F441B321E030E0B90120
:1001D80002C0660F771F8A95E2F7CB01842B81BB9B
:1001E800089541B321E030E0B90102C0660F771FDE
:0E01F8008A95E2F7CB018095842381BB0895A0
:100206000E94140161E086E00E94540078942FEF6A
:1002160089E698E1215080409040E1F700C0000057
:02022600F6CF11
:1002280061E083E00E94A60061E082E00E94C500D0
:1002380061E087E00E94C50061E086E00E94E4007A
:02024800089517
:10024A0083E00E94320182E00E943D0187E00E9421
:0A025A003D0186E00E94480108956E
:1002640098B321E030E002C0220F331F8A95E2F7F1
:06027400292728BB0895B4
:10027A0095B321E030E002C0220F331F8A95E2F7DE
:06028A00292725BB0895A1
:1002900092B321E030E002C0220F331F8A95E2F7CB
:0602A000292722BB08958E
:0402A6000C940000B4
:00000001FF
