:100000000C942A000C94CB000C94E1010C94E101B7
:100010000C94E1010C94E1010C94E1010C94E101D8
:100020000C94E1010C94E1010C94A6000C94E10104
:100030000C94E1010C94E1010C94E1010C94E101B8
:100040000C94E1010C94E1010C94E1010C94E101A8
:100050000C94E10111241FBECFE5D8E0DEBFCDBF77
:10006000E4E5F0E040E017C0B591A5913591259108
:10007000059107FD0CC095918591EF01F92FE82FAF
:1000800005900D92A217B307D9F7FE0104C01D9287
:10009000A217B307E1F7E435F40731F70E945400E3
:0800A0000C945200F894FFCF0C
:1000A8000E94C5010E94670165E081E00E94CE01BF
:1000B800789481E00E94DE01882361F08CB7865F26
:1000C8008CBF2FEF84E39CE0215080409040E1F703
:1000D80000C0000082E00E94DE01882351F38CB743
:1000E8008A508CBF2FEF84E39CE0215080409040E1
:0800F800E1F700C00000DDCFBC
:10010000813069F028F08230B1F08330D9F0089561
:1001100083B7877B83BF81E00E94B101089583B7D5
:100120008F7B83BF83B7886083BF84E68CBF81E009
:100130000E94BB01089583B7877F83BF83B7806424
:0C01400083BF089583B7886483BF0895CF
:10014C001F920F920FB60F9211242F933F934F9340
:10015C005F936F937F938F939F93AF93BF93EF9323
:10016C00FF9383E00E944C01FF91EF91BF91AF91FF
:10017C009F918F917F916F915F914F913F912F91B3
:0A018C000F900FBE0F901F90189502
:100196001F920F920FB60F9211242F933F934F93F6
:1001A6005F936F937F938F939F93AF93BF93EF93D9
:1001B600FF930E947801FF91EF91BF91AF919F91BC
:1001C6008F917F916F915F914F913F912F910F90FA
:0801D6000FBE0F901F90189559
:1001DE00662379F06130D1F447B321E030E0B90104
:1001EE0002C0660F771F8A95E2F7CB01842B87BB7F
:1001FE00089547B321E030E0B90102C0660F771FC2
:0E020E008A95E2F7CB018095842387BB089583
:10021C00662379F06130D1F444B321E030E0B901C8
:10022C0002C0660F771F8A95E2F7CB01842B84BB43
:10023C00089544B321E030E0B90102C0660F771F86
:0E024C008A95E2F7CB018095842384BB089548
:10025A00662379F06130D1F441B321E030E0B9018D
:10026A0002C0660F771F8A95E2F7CB01842B81BB08
:10027A00089541B321E030E0B90102C0660F771F4B
:0E028A008A95E2F7CB018095842381BB08950D
:10029800833049F018F4823051F00895863079F0AF
:1002A800873049F0089583E00E948501089582E02F
:1002B8000E949001089587E00E949001089586E0C9
:0602C8000E949B01089555
:1002CE0061E083E00E94EF0061E082E00E940E0197
:1002DE0061E087E00E940E0161E086E00E942D0140
:0202EE00089571
:1002F00083E00E94850182E00E94900187E00E94D5
:0A030000900186E00E949B01089521
:10030A0098B321E030E002C0220F331F8A95E2F74A
:06031A00292728BB08950D
:1003200095B321E030E002C0220F331F8A95E2F737
:06033000292725BB0895FA
:1003360092B321E030E002C0220F331F8A95E2F724
:06034600292722BB0895E7
:10034C0020B330E0A90102C0559547958A95E2F794
:06035C00CA018170089542
:10036200882321F089B7816089BF089589B78E7F7C
:0403720089BF0895A2
:10037600882321F089B7826089BF089589B78D7F68
:0403860089BF08958E
:10038A0060E081E00E942D0160E082E00E942D0180
:02039A000895C4
:10039C00CF93C62F0E9480008C2F0E94D701CF9143
:0203AC000895B2
:0E03AE0093B7987F93BF93B7892B83BF0895B1
:0603BC000E94A601089555
:0403C2000C94000097
:00000001FF
