:100000000C942A000C94B4000C94B4000C94B4002A
:100010000C94B4000C94B4000C94B4000C94B40090
:100020000C94B4000C94B4000C94B4000C94B40080
:100030000C94B4000C94B4000C94B4000C94B40070
:100040000C94B4000C94B4000C94B4000C94B40060
:100050000C94B40011241FBECFE5D8E0DEBFCDBFA5
:10006000E4E5F0E040E017C0B591A5913591259108
:10007000059107FD0CC095918591EF01F92FE82FAF
:1000800005900D92A217B307D9F7FE0104C01D9287
:10009000A217B307E1F7E435F40731F70E949100A6
:0800A0000C945200F894FFCF0C
:1000A800662379F06130D1F447B321E030E0B9013B
:1000B80002C0660F771F8A95E2F7CB01842B87BBB6
:1000C800089547B321E030E0B90102C0660F771FF9
:0E00D8008A95E2F7CB018095842387BB0895BB
:1000E6008823A9F08130C1F461E085E00E945400C4
:1000F60061E084E00E94540061E087E00E945400C1
:100106008DB183608DB98EB18EB96C9A05C061E0F0
:0C01160086E00E9454006C986E9A0895D8
:1001220081E00E94A60081E00E94730081E40E94A7
:10013200AF000E94B6002FEF83EC99E0215080407F
:0A0142009040E1F700C00000F1CF8B
:10014C00882329F0813021F48FEF8ABB08951ABAE5
:02015C00089504
:0A015E008FB9779BFECF8FB1089593
:040168000C940000F3
:04016C008BBB0895AC
:00000001FF
