:100000000C942A000C9494000C9494000C9494008A
:100010000C9494000C9494000C9494000C94940010
:100020000C9494000C9494000C9494000C94940000
:100030000C9494000C9494000C9494000C949400F0
:100040000C9494000C9494000C9494000C949400E0
:100050000C94940011241FBECFE5D8E0DEBFCDBFC5
:10006000E4E5F0E040E017C0B591A5913591259108
:10007000059107FD0CC095918591EF01F92FE82FAF
:1000800005900D92A217B307D9F7FE0104C01D9287
:10009000A217B307E1F7E435F40731F70E946F00C8
:0800A0000C945200F894FFCF0C
:1000A8008FEF8ABB87B3836087BB80E60E948F008F
:1000B8008FE00E948F008CE00E948F0081E00E94F8
:1000C8008F002FEF80E792E0215080409040E1F7C9
:0600D80000C000000895C5
:1000DE000E94540081E40E948A0088E60E948A00F1
:1000EE008DE60E948A0085E60E948A0084E60E94C0
:0400FE008A00FFCFA6
:10010200C19A8FE19EE40197F1F700C00000C19807
:0201120008954E
:0A011400C09A8BBB0E948100089581
:0A011E00C0988BBB0E948100089579
:040128000C94000033
:00000001FF
