:100000000C942A000C94DA000C94DA000C94DA00B8
:100010000C94DA000C94DA000C94DA000C94DA00F8
:100020000C94DA000C94DA000C94DA000C94DA00E8
:100030000C94DA000C94DA000C94DA000C94DA00D8
:100040000C94DA000C94DA000C94DA000C94DA00C8
:100050000C94DA0011241FBECFE5D8E0DEBFCDBF7F
:10006000E4E5F0E040E017C0B591A5913591259108
:10007000059107FD0CC095918591EF01F92FE82FAF
:1000800005900D92A217B307D9F7FE0104C01D9287
:10009000A217B307E1F7E435F40731F70E945400E3
:0800A0000C945200F894FFCF0C
:1000A8000E94A5006AE58AEA90E00E94BB002FEF53
:1000B80030E782E0215030408040E1F700C0000086
:1000C8006AEA70E080E00E94D1009FEF20E732E00A
:1000D800915020403040E1F700C000000E947500B8
:0200E800FFCF48
:1000EA00CF93C82FC19A8BB38F709C2F907F892B87
:1000FA008BBB0E94C8008BB3282F2F7030E1C39F9F
:10010A00C0011124822B8BBB0E94C800CF91089595
:10011A00CF93C82FC1988BB38F709C2F907F892B58
:10012A008BBB0E94C8008BB3282F2F7030E1C39F6E
:10013A00C0011124822B8BBB0E94C800CF91089565
:10014A008AB3806F8ABB87B3866087BB82E00E94CE
:10015A008D0088E20E948D008FE00E948D0086E06B
:0C016A000E948D0082E00E948D0008952C
:10017600262FE199FECF9FBB8EBB2DBB0FB6F89401
:0A018600E29AE19A0FBE0196089577
:10019000C29A8FE19EE40197F1F700C00000C29877
:0201A0000895C0
:1001A200CB01E199FECF9FBB8EBBE09A99278DB31D
:0201B2000895AE
:0401B4000C940000A7
:00000001FF
