:100000000C942A000C94A7010C94A7010C94A7014E
:100010000C94A7010C94A7010C94A7010C94A701C0
:100020000C94A7010C94A7010C94A7010C94A701B0
:100030000C94A7010C94A7010C94A7010C94A701A0
:100040000C94A7010C94A7010C94A7010C94A70190
:100050000C94A70111241FBECFE5D8E0DEBFCDBFB1
:10006000E4E5F0E040E017C0B591A5913591259108
:10007000059107FD0CC095918591EF01F92FE82FAF
:1000800005900D92A217B307D9F7FE0104C01D9287
:10009000A217B307E1F7E435F40731F70E948901AD
:0800A0000C945200F894FFCF0C
:1000A80061E080E00E94240161E081E00E94240177
:1000B80061E082E00E9424012FEF89EF90E0215057
:1000C80080409040E1F700C000000E94A901807FB5
:1000D80039F38032F1F018F4803139F0E1CF80340F
:1000E80051F1803809F439C0DBCF60E080E00E942C
:1000F80024010E94A901807F09F441C060E081E0E9
:100108000E9424010E94A901807F09F03AC082E37D
:10011800089560E080E00E9424010E94A901807F88
:1001280091F160E081E00E9424010E94A901807F92
:1001380061F585E3089560E080E00E9424010E9453
:10014800A901807F21F160E081E00E9424010E94E2
:10015800A901807FF1F488E3089560E080E00E94BF
:1001680024010E94A901807FB1F060E081E00E9433
:1001780024010E94A901807F81F480E3089583E32C
:10018800089581E3089586E3089584E3089589E353
:0E019800089587E3089583E208958AE20895AA
:1001A60060E084E00E94050160E085E00E940501B0
:1001B60060E086E00E94050160E087E00E9405019C
:1001C60061E080E00E94050161E081E00E94050196
:1001D60061E082E00E9405012FEF89EF90E0215057
:1001E60080409040E1F700C0000061E080E00E949E
:1001F600240161E081E00E94240161E082E00E9426
:040206002401089532
:10020A00662379F06130D1F444B321E030E0B901DA
:10021A0002C0660F771F8A95E2F7CB01842B84BB55
:10022A00089544B321E030E0B90102C0660F771F98
:0E023A008A95E2F7CB018095842384BB08955A
:10024800662379F06130D1F445B321E030E0B9019B
:1002580002C0660F771F8A95E2F7CB01842B85BB16
:10026800089545B321E030E0B90102C0660F771F59
:0E0278008A95E2F7CB018095842385BB08951B
:10028600CF93C82FC19A8BB38F709C2F907F892BE9
:100296008BBB0E949E018BB3282F2F7030E1C39F2A
:1002A600C0011124822B8BBB0E949E01CF91089521
:1002B600CF93C82FC1988BB38F709C2F907F892BBB
:1002C6008BBB0E949E018BB3282F2F7030E1C39FFA
:1002D600C0011124822B8BBB0E949E01CF910895F1
:1002E6008AB3806F8ABB87B3866087BB82E00E9431
:1002F6005B0188E20E945B018FE00E945B0186E061
:0C0306000E945B0182E00E945B010895F0
:100312000E9473010E94D30081E40E9443010E9463
:1003220054000E9443012FEF84E39CE0215080405F
:0A0332009040E1F700C00000F2CF98
:10033C00C29A8FE19EE40197F1F700C00000C298C9
:02034C00089512
:04034E000C9400000B
:0403520083B30895D4
:00000001FF
