:100000000C942A000C945F010C940A030C940A03CC
:100010000C940A030C940A030C940A030C940A032C
:100020000C940A030C940A030C940A030C940A031C
:100030000C940A030C940A030C940A030C940A030C
:100040000C940A030C940A030C940A030C940A03FC
:100050000C940A0311241FBECFE5D8E0DEBFCDBF4C
:10006000E4E5F0E040E017C0B591A5913591259108
:10007000059107FD0CC095918591EF01F92FE82FAF
:1000800005900D92A217B307D9F7FE0104C01D9287
:10009000A217B307E1F7E435F40731F70E94FB003C
:0800A0000C945200F894FFCF0C
:1000A8000FC00E94EC0238F00E94F30220F0952362
:1000B80011F00C94FA020C94070311240C94E60234
:1000C8000E94830170F3959FC1F3950F50E0551F6F
:1000D800629FF001729FBB27F00DB11D639FAA2795
:1000E800F00DB11DAA1F649F6627B00DA11D661FE4
:1000F800829F2227B00DA11D621F739FB00DA11D05
:10010800621F839FA00D611D221F749F3327A00DBE
:10011800611D231F849F600D211D822F762F6A2F5A
:1001280011249F5750409AF0F1F088234AF0EE0FBF
:10013800FF1FBB1F661F771F881F91505040A9F7EC
:100148009E3F510580F00C94FA020C94E6025F3F42
:10015800E4F3983ED4F3869577956795B795F79528
:10016800E7959F5FC1F7FE2B880F911D96958795A0
:0401780097F9089556
:10017C00E89409C097FB3EF4909580957095619535
:10018C007F4F8F4F9F4F9923A9F0F92F96E9BB27EB
:10019C009395F695879577956795B795F111F8CF67
:1001AC00FAF4BB0F11F460FF1BC06F5F7F4F8F4FD2
:1001BC009F4F16C0882311F096E911C0772321F0C8
:1001CC009EE8872F762F05C0662371F096E8862F60
:1001DC0070E060E02AF09A95660F771F881FDAF7B7
:0A01EC00880F9695879597F90895FE
:1001F6000E94180247E061E080E00E942E020E9401
:100206000E030E9404030E9450020E94C7018FE160
:100216009EE40197F1F700C0000081E00E94D00241
:100226000E940E030E9404030E945002EC0180EC1F
:100236000E940002CE010E94C7019FEF29E688E1D5
:10024600915020408040E1F700C0000081E00E940C
:0A025600000280E00E94D002D2CF27
:100260000E948B0188F09F5798F0B92F9927B751BA
:10027000B0F0E1F0660F771F881F991F1AF0BA954A
:10028000C9F714C0B13091F00E94E502B1E00895C1
:100290000C94E502672F782F8827B85F39F0B93FB3
:1002A000CCF3869577956795B395D9F73EF49095FD
:0E02B0008095709561957F4F8F4F9F4F0895F9
:1002BE001F920F920FB60F9211242F933F934F93CD
:1002CE005F936F937F938F939F93AF93BF93EF93B0
:1002DE00FF930E948E02FF91EF91BF91AF919F917C
:1002EE008F917F916F915F914F913F912F910F90D1
:0802FE000FBE0F901F90189530
:1003060057FD9058440F551F59F05F3F71F04795C0
:10031600880F97FB991F61F09F3F79F087950895A5
:10032600121613061406551FF2CF4695F1DF08C0C4
:10033600161617061806991FF1CF869571056105E1
:04034600089408957A
:10034A00BB27FA01A62F6217710581059105330BA8
:10035A0030FB66F0AA27660F771F881F991FAA1F0E
:10036A00A21710F0A21B63953850A9F7A05DAA3313
:10037A0008F0A95DA19336F7B111B1931082CA01B1
:04038A000C9460026D
:10038E00CF93DF93CDB7DEB72B970FB6F894DEBFC2
:10039E000FBECDBFBC01990F880B990B2AE0AE01A1
:1003AE004F5F5F4F0E947F02CE0101960E94700246
:1003BE002B960FB6F894DEBF0FBECDBFDF91CF9157
:0203CE00089590
:1003D000CF93C82FC19A8BB38F709C2F907F892B9E
:1003E0008BBB0E94C7028BB3282F2F7030E1C39FB5
:1003F000C0011124822B8BBB0E94C702CF910895AC
:10040000CF93C82FC1988BB38F709C2F907F892B6F
:100410008BBB0E94C7028BB3282F2F7030E1C39F84
:10042000C0011124822B8BBB0E94C702CF9108957B
:100430008AB3806F8ABB87B3866087BB82E00E94E5
:10044000000288E20E9400028FE00E94000286E023
:0C0450000E94000282E00E940002089559
:10045C00CF93DF93C62FD42F0E94D0028D2F0E94F2
:10046C00D7028C2F0E94BC020E940C03DF91CF910B
:02047C000895E1
:10047E00092E0394000C11F4882352F0BB0F40F4A4
:10048E00BF2B11F460FF04C06F5F7F4F8F4F9F4FE4
:02049E000895BF
:1004A00064B175B180E090E00E94BE0020E030E4CD
:1004B0004CE950E40E9400030E94DE02CB01089543
:1004C000DC01FC01672F71917723E1F7329704C0BB
:1004D0007C916D9370836291AE17BF07C8F3089546
:1004E000CF93DF93EC018881882331F021960E941D
:0E04F000E80189918111FBCFDF91CF91089532
:1004FE00BB272A3051F4992342F4BDE290958095A2
:0E050E00709561957F4F8F4F9F4F0C94A60103
:10051C0083E00E949B0282E00E94A60287E00E9478
:0A052C00A60286E00E94B1020895C5
:1005360098B321E030E002C0220F331F8A95E2F71C
:06054600292728BB0895DF
:10054C0095B321E030E002C0220F331F8A95E2F709
:06055C00292725BB0895CC
:1005620092B321E030E002C0220F331F8A95E2F7F6
:06057200292722BB0895B9
:1005780097B19F7397B927B130E4839FC0011124C5
:06058800822B87B90895E3
:10058E00C29A8FE19EE40197F1F700C00000C29875
:02059E000895BE
:0E05A00097B1907E97B997B1892B87B90895CE
:0E05AE0096B1987F96B996B1892B86B90895BB
:0E05BC000E9430016894B1110C94E60208957B
:0E05CA00E894BB2766277727CB0197F90895A1
:0E05D80000240A941616170618060906089540
:0E05E60000240A941216130614060506089542
:0C05F40097F99F6780E870E060E00895D0
:080600000E9454000C943F021B
:06060800349BFECF0895B3
:06060E009FEF80EC08954F
:040614000C94000042
:04061800379A089570
:04061C00369A08956D
:00000001FF
