:100000000C942A000C94EA000C94EA000C94EA0088
:100010000C94EA000C94EA000C94EA000C94EA00B8
:100020000C94EA000C94EA000C94EA000C94EA00A8
:100030000C94EA000C94EA000C94EA000C94EA0098
:100040000C94EA000C94EA000C94EA000C94EA0088
:100050000C94EA0011241FBECFE5D8E0DEBFCDBF6F
:10006000E4E5F0E040E017C0B591A5913591259108
:10007000059107FD0CC095918591EF01F92FE82FAF
:1000800005900D92A217B307D9F7FE0104C01D9287
:10009000A217B307E1F7E435F40731F70E94D9005E
:0800A0000C945200F894FFCF0C
:1000A800CF93DF93CDB7DEB72B970FB6F894DEBFAB
:1000B8000FBECDBF4AE0BE016F5F7F4F0E94C500F3
:1000C800CE0101960E94B6002B960FB6F894DEBFBB
:0A00D8000FBECDBFDF91CF91089558
:1000E2008FEF8ABB87B3836087BB80E60E94E500FF
:1000F2008FE00E94E5008CE00E94E50081E00E9412
:10010200E5002FEF80E792E0215080409040E1F738
:0601120000C0000008958A
:10011800BB27FB015527AA27880F991FAA1FA417D9
:1001280010F0A41B83955051B9F7A05DAA3308F0CD
:10013800A95DA193009779F7B111B1931192CB0101
:040148000C94A6006D
:10014C00DC01FC01672F71917723E1F7329704C032
:10015C007C916D9370836291AE17BF07C8F30895BD
:10016C00CF93DF93EC018881882331F021960E9494
:0E017C00E00089918111FBCFDF91CF910895B2
:10018A00BB274A3031F4992322F4BDE29095819538
:06019A009F4F0C948D0044
:1001A000C19A8FE19EE40197F1F700C00000C19869
:0201B0000895B0
:0E01B2000E94710086E39CE90E945400FFCF7A
:0A01C000C09A8BBB0E94D000089586
:0A01CA00C0988BBB0E94D00008957E
:0401D4000C94000087
:00000001FF
