:100000000C942A000C9435010C9435010C943501A4
:100010000C9435010C94CD000C9435010C943501F1
:100020000C9435010C9435010C9435010C94350178
:100030000C9435010C9435010C9435010C94350168
:100040000C9435010C9435010C9435010C94350158
:100050000C94350111241FBECFE5D8E0DEBFCDBF23
:10006000E4E5F0E040E017C0B591A5913591259108
:10007000059107FD0CC095918591EF01F92FE82FAF
:1000800005900D92A217B307D9F7FE0104C01D9287
:10009000A217B307E1F7E435F40731F70E947E00B9
:0800A0000C945200F894FFCF0C
:1000A800813069F028F08230B1F08330E9F00895AA
:1000B80085B5877B85BD81E00E941001089585B5CF
:1000C8008F7B85BD85B5886085BD86E083BD81E071
:1000D8000E941A01089585B5877F85BD85B580641E
:1000E80085BD86E083BD089585B5886485BD86E0B5
:0400F80083BD089527
:1000FC0081E00E94240161E087E00E94F10085B557
:10010C00806285BD85B58F7E85BD80E00E94A6008E
:10011C00789496E085E293BD2FEF33ED40E32150C8
:10012C0030404040E1F700C0000083BD2FEF33EDBD
:10013C0040E3215030404040E1F700C00000EBCFDD
:10014C00CF93C82F80E00E94100180E00E941A011A
:10015C0082B5886082BD14BC86E083BD8C2F0E9462
:10016C00540085B5806285BD85B58F7E85BD02B492
:10017C0002FCFDCF02B400FCFDCF02B401FCFDCFAC
:0E018C000E94310181E00E941001CF91089580
:10019A001F920F920FB60F9211242F933F934F93F2
:1001AA005F936F937F938F939F93AF93BF93EF93D5
:1001BA00FF930E942D01FF91EF91BF91AF919F9103
:1001CA008F917F916F915F914F913F912F910F90F6
:0801DA000FBE0F901F90189555
:1001E200662379F06130D1F441B321E030E0B90106
:1001F20002C0660F771F8A95E2F7CB01842B81BB81
:10020200089541B321E030E0B90102C0660F771FC3
:0E0212008A95E2F7CB018095842381BB089585
:10022000882321F089B7806489BF089589B78F7BBF
:0402300089BF0895E5
:10023400882321F089B7806889BF089589B78F77AB
:0402440089BF0895D1
:10024800882329F0813021F48FEF8ABB08951ABAE8
:02025800089507
:08025A008BB380958BBB089566
:0802620088B78F7388BF08956F
:04026A000C940000F0
:00000001FF
