:100000000C942D000C940C0B0C940C0B0C940C0BFE
:100010000C940C0B0C940C0B0C940C0B0C94060B0A
:100020000C940C0B0C940C0B0C940C0B0C940C0BF4
:100030000C940C0B0C940C0B0C940C0B0C940C0BE4
:100040000C940C0B0C940C0B0C940C0B0C940C0BD4
:100050000C940C0B006006AC800011241FBECFE591
:10006000D8E0DEBFCDBFE4E5F0E040E017C0B591D9
:10007000A59135912591059107FD0CC0959185912C
:10008000EF01F92FE82F05900D92A217B307D9F7CA
:10009000FE0104C01D92A217B307E1F7E935F4078A
:0E00A00031F70E943B080C945500F894FFCFF6
:0600AE0054310054320041
:0600B40049444C45000325
:1000BA002F923F924F925F926F927F928F92AF925E
:1000CA00BF92CF92DF92EF920F931F93CF93DF935A
:1000DA001C013A01862E2801022F10E0C8010E9455
:1000EA00A7035C01892B09F409C186E290E00E940A
:1000FA00A703EC01892B81F086E2FE0111928A9511
:10010A00E9F7B88EAF8A01501109A00EB11E611429
:10011A007104810429F430C0C5010E94CE04EEC0E6
:10012A00F301849187FC8081898FF301849187FC94
:10013A008081882301F1AE01465E5F4FA82DC3017D
:10014A000196A11DF8E06F0E711C811C2A2FFC017B
:10015A007491A7FD7081FA017193AF01E82FF92F0D
:10016A000196A11D349127FD3081332321F0861594
:10017A009705A80559F718A2F3E0FE1520F40F2EEB
:10018A00F3E0EF2EF02DEE8A8E010E5F1F4FC801AD
:10019A000E94FE0ACE010C960E94FE0AD987C887E1
:1001AA0084E090E08E1991099D878C87DB8BCA8B3E
:1001BA00A201B101C5010E94AC0599838883C114CB
:1001CA00D10409F49DC0F601D183C08399C0D093AC
:1001DA00A306C093A2068091AA068130E9F58CE3B2
:1001EA0096E00E94A20A85E496E00E94A20A8EE4A2
:1001FA0096E00E94A20A87E596E00E94A20A8BE78F
:10020A0096E00E94A20A82E796E00E94A20A89E684
:10021A0096E00E94A20A80E696E00E94A20A8BE774
:10022A0096E09093A1068093A00682E796E09093C9
:10023A009F0680939E0610C08091A80681110CC06B
:10024A00E091A206F091A30696898E89891720F07B
:10025A00D093A306C093A2068091A5068F5F8093D0
:10026A00A5068E899091A906981710F48093A9067D
:10027A0090E0FC01EE0FFF1FEE0FFF1FEE0FFF1FB6
:10028A008E0F9F1FFC01E45CF94F0180F281E02D83
:10029A00FD83EC83848195819F838E83A481B581BC
:1002AA0013961C930E93129715830483EE89F0E03C
:1002BA00CF01880F991F880F991F880F991FE80F80
:1002CA00F91FE45CF94FFB87EA8780818F5F80839F
:1002DA000F900FBE8091A806882361F0E091A206D4
:1002EA00F091A30696898E89981730F40E94940794
:1002FA0081E016C081E014C081E012C08FEF10C007
:10030A000FB6F8940F928091AA068F5F8093AA067F
:10031A008091A2069091A306892B09F08DCF57CF21
:10032A00DF91CF911F910F91EF90DF90CF90BF9007
:10033A00AF908F907F906F905F904F903F902F90EB
:02034A00089514
:10034C00EF92FF920F931F93CF93DF938091A406AC
:10035C00811104C1C0919C06D0919D067E018FEF46
:10036C00E81AF80AF0929D06E0929C06E114F1045A
:10037C00B9F48091A0069091A10620919E0630912F
:10038C009F063093A1062093A00690939F0680931E
:10039C009E068091A6068F5F8093A6060E940A0A8D
:1003AC008091980690919906E816F90610F480E071
:1003BC00B9C080E061E0E091A006F091A1069081C7
:1003CC00911107C02FEF3FEF3093990620939806B9
:1003DC00A9C0E091A006F091A1060580F681E02D60
:1003EC000680F781E02D22813381E216F30628F492
:1003FC00309399062093980695C0A285B3852481E5
:10040C00358146815781E9015D834C832681378193
:10041C0044815581E9015B834A83AF014E5F5F4F95
:10042C0011962D913C9112972417350731F42681A2
:10043C00378112963C932E931197138612869C91BA
:10044C0091509C93A489B589109719F1268537850D
:10045C0000891189E9011D830C8320893189068566
:10046C001785E9011B830A8311960D911C91129734
:10047C009F01245F3F4F0217130731F42089318904
:10048C0012963C932E931197158A148A9C91915035
:10049C009C9326899091A906921710F42093A90693
:1004AC0030E0D901AA0FBB1FAA0FBB1FAA0FBB1F9D
:1004BC002A0F3B1FD901A45CB94F11960D90BC912A
:1004CC00A02DB583A48314962D913C911597378359
:1004DC00268314962D913C911597E9015B834A83F1
:1004EC0015965C934E931497A689B0E09D01220F4C
:1004FC00331F220F331F220F331FA20FB31FA45C15
:10050C00B94FB387A2879C919F5F9C93A091A20641
:10051C00B091A306268956969C91921708F04BCF62
:10052C00862F49CFE091A206F091A306268930E0F0
:10053C00F901EE0FFF1FEE0FFF1FEE0FFF1F2E0F27
:10054C003F1FF901E45CF94F9081923008F081E093
:10055C009091A706992361F081E00AC080919A06D8
:10056C0090919B06019690939B0680939A0680E04F
:0E057C00DF91CF911F910F91FF90EF900895A6
:10058A001F93CF93DF930FB6F8940F928091A4062E
:10059A0081508093A4068091A4068111CAC08091DB
:1005AA00AA0681119BC0C8C0DB011596ED91FC918A
:1005BA0016970680F781E02DA489B58986859785E7
:1005CA0020893189EC013D832C8380899189268594
:1005DA003785EC013B832A83CF010C9611962D9126
:1005EA003C9112972817390731F48089918912961C
:1005FA009C938E931197158A148A8C9181508C93AF
:10060A00A285B3858481958126813781EC013D835A
:10061A002C838681978124813581EC013B832A834F
:10062A009F012E5F3F4F11968D919C9112978217D1
:10063A00930731F48681978112969C938E93119732
:10064A00138612868C9181508C9386899091A90683
:10065A00981710F48093A90690E0DC01AA0FBB1F3B
:10066A00AA0FBB1FAA0FBB1F8A0F9B1FDC01A45C2A
:10067A00B94F11960D90BC91A02DB583A483149601
:10068A008D919C9115979783868314968D919C9151
:10069A001597EC013B832A8315963C932E93149766
:1006AA00A689B0E0CD01880F991F880F991F880F7E
:1006BA00991FA80FB91FA45CB94FB387A2878C9161
:1006CA008F5F8C93A091A206B091A3069689569645
:1006DA008C91891740F44093A70605C0E0E0F0E04A
:1006EA0069E676E041E0DB018C9181115DCFEF2B69
:1006FA0011F00E940A0AC0919A06D0919B0620978F
:10070A0061F011E00E94A60181111093A7062197BA
:10071A00C9F710929B0610929A068091A706882321
:10072A0051F08091A2069091A3060E94940781E05D
:10073A0003C080E001C080E00F900FBEDF91CF912F
:04074A001F9108955E
:10074E000F931F93CF93DF939C01215031092B3FC1
:10075E003F4F18F4EC01249602C0C0E0D0E00E9496
:10076E00EE0A8091940690919506892B11F5E4E896
:10077E00F6E0A0E6B0E0B183A08313821282E8E334
:10078E00F6E0F0939506E09394061382128211829E
:10079E00108288ED95E013969C938E931297ED93AD
:1007AE00FC9390939106809390069093930680937A
:1007BE0092061C161D060CF069C08091920690914F
:1007CE0093068C179D0708F464C0E0918406F0919F
:1007DE00850664E876E002C0BF01F901228133810B
:1007EE002C173D0728F42081318121153105A1F701
:1007FE002091940630919506E217F30709F44CC048
:10080E00DB010D911C9111970C5F1F4F20813181DF
:10081E002D933C93228133812C1B3D0B29303105C6
:10082E0098F0AF014C0F5D1FDA0113963C932E9397
:10083E001297D383C283DB012D913C91DA012D9364
:10084E003C93DB014D935C9322813381821B930B8E
:10085E009093930680939206409190065091910644
:10086E008417950720F49093910680939006306834
:10087E00338322831182108280918E0690918F068F
:10088E00019690938F0680938E0608C000E010E0CC
:10089E0005C000E010E002C000E010E00E94C502BA
:0C08AE00C801DF91CF911F910F910895B8
:1008BA008091A406882321F081E08093A7060895F9
:1008CA001092A7062091A906822F90E0FC01EE0F54
:1008DA00FF1FEE0FFF1FEE0FFF1FE80FF91FE45C6B
:1008EA00F94F3081311111C02150822F90E0FC0163
:1008FA00EE0FFF1FEE0FFF1FEE0FFF1FE80FF91F8E
:10090A00E45CF94F3081332379F3AC01440F551F6E
:10091A00440F551F440F551F480F591FFA01E45C35
:10092A00F94FA181B28112966D917C9113977283CE
:10093A006183415C594F6417750779F4FC01EE0F26
:10094A00FF1FEE0FFF1FEE0FFF1FE80FF91FE45CFA
:10095A00F94F4581568152834183FC01EE0FFF1FF7
:10096A00EE0FFF1FEE0FFF1F8E0F9F1FFC01E45CAF
:10097A00F94F0180F281E02D868197819093A30639
:10098A008093A2062093A9068091A2069091A306BD
:02099A000895BE
:10099C00CF93DF93009709F467C0FC013497228151
:1009AC00338133230CF060C040815181452B09F019
:1009BC005BC0EF013F77338322830E94EE0A4A81AA
:1009CC005B818091920690919306840F951F909372
:1009DC00930680939206E4E8F6E001C0FC01808166
:1009EC0091818C179D07D0F322813381BF01620F57
:1009FC00731FC617D70729F4240F351F338322839F
:100A0C00EF012A813B81DE01A20FB31F8A179B07DE
:100A1C00C9F48091940690919506A817B90779F0BE
:100A2C0012968D919C911397280F391F3B832A8323
:100A3C00A081B1818D919C919983888305C0B983E4
:100A4C00A88302C099838883EC17FD0711F0D1832A
:100A5C00C08380918C0690918D06019690938D06A3
:0E0A6C0080938C060E94C502DF91CF91089501
:100A7A0010C00E94E00A58F00E94D90A40F029F4F6
:100A8A005F3F29F00C94F40A51110C94E80A0C9473
:100A9A00090B0E94C70968F39923B1F3552391F30F
:100AAA00951B550BBB27AA2762177307840738F0D3
:100ABA009F5F5F4F220F331F441FAA1FA9F335D030
:100ACA000E2E3AF0E0E832D091505040E695001CE4
:100ADA00CAF72BD0FE2F29D0660F771F881FBB1F9E
:100AEA00261737074807AB07B0E809F0BB0B802D7C
:100AFA00BF01FF2793585F4F3AF09E3F510578F0A8
:100B0A000C94F40A0C94E80A5F3FE4F3983ED4F399
:100B1A00869577956795B795F7959F5FC9F7880F7B
:100B2A00911D9695879597F90895E1E0660F771FCD
:100B3A00881FBB1F621773078407BA0720F0621B5E
:0E0B4A00730B840BBA0BEE1F88F7E09508952D
:100B580031E1FC013083319722E220833197A3E30E
:100B6800A0833197608331977083319710823197D2
:100B780060E8608331971082319762E06083319733
:100B880063E06083319764E06083319765E0608358
:100B9800319766E06083319767E06083319768E05A
:100BA8006083319769E06083319760E160833197B2
:100BB8003083319732E13083319733E13083319795
:100BC80034E13083319735E13083319736E1308332
:100BD800319737E13083319738E13083319739E104
:100BE8003083319730E23083319731E23083319767
:100BF8002083319723E220833197408331975083B4
:100C0800319726E22083319727E22083319728E223
:100C18002083319729E22083319720E3208331977D
:080C280021E320838697089563
:100C300011C00E94D90A38F00E94E00A20F039F46D
:100C40009F3F19F426F40C94090B0EF4E095E7FB92
:100C50000C94F40AE92F0E94C70958F3BA176207E7
:100C600073078407950720F079F4A6F50C94E70A3A
:100C70000EF4E0950B2EBA2FA02D0B01B9019001B7
:100C80000C01CA01A0011124FF27591B99F0593FFB
:100C900050F4503E68F11A16F040A22F232F342F43
:100CA0004427585FF3CF469537952795A795F04091
:100CB0005395C9F77EF41F16BA0B620B730B840BA6
:100CC000BAF09150A1F0FF0FBB1F661F771F881F5E
:100CD000C2F70EC0BA0F621F731F841F48F48795B6
:100CE00077956795B795F7959E3F08F0B0CF9395A8
:0E0CF000880F08F09927EE0F979587950895C5
:100CFE000F931F93CF93DF93EC010FB6F8940F92DF
:100D0E00892B21F4C091A206D091A3068E010E5F0D
:100D1E001F4FC8010E947F098C899D89892B21F064
:100D2E00CE010C960E947F098091A5068F5F80935D
:100D3E00A5062091A2063091A3068091A8068823CD
:100D4E0079F0C217D30761F4B80180E696E00E94ED
:100D5E00E9098091AB068F5F8093AB0681E008C0F6
:100D6E008091AA0681508093AA060E940A0A80E00A
:100D7E000F900FBE813039F08F89988D0E94CE046E
:100D8E00CE010E94CE048091A806882349F080915E
:100D9E00A2069091A306C817D90711F40E949407D2
:0A0DAE00DF91CF911F910F9108957E
:100DB8000F920FB6F8940F921F9211242F923F9220
:100DC8004F925F926F927F928F929F92AF92BF9253
:100DD800CF92DF92EF92FF920F931F932F933F933F
:100DE8004F935F936F937F938F939F93AF93BF932B
:100DF800CF93DF93EF93FF93A091A206B091A30640
:100E08000DB60D920EB60D920E94A60181110E9498
:100E18005D04A091A206B091A306CD91CDBFDD914E
:100E2800DEBFFF91EF91DF91CF91BF91AF919F917D
:100E38008F917F916F915F914F913F912F911F916A
:100E48000F91FF90EF90DF90CF90BF90AF909F9061
:100E58008F907F906F905F904F903F902F901F9052
:080E68000F900FBE0F900895DA
:100E7000CF92DF92EF920F931F93CF93DF93CDB773
:100E8000DEB728970FB6F894DEBF0FBECDBF89E45A
:100E9000898385EB90E0A0E09E012E5F3F4FBE016D
:100EA000675F7F4FFC014491A7FD40810196A11D22
:100EB000F90141939F01442319F06E177F0791F7C1
:100EC000AE014F5F5F4F60E80F2EF6E9CF2EF6E0E0
:100ED000DF2EF02DE12C00E010E025E580EB9AE01C
:100EE0000E945D00882391F0813081F4F8948FEFA7
:100EF0009FEF909399068093980681E08093A806CF
:100F000010929D0610929C060E94B60828960FB675
:100F1000F894DEBF0FBECDBFDF91CF911F910F912F
:080F2000EF90DF90CF900895DF
:100F28000F920FB6F8940F921F9211242F923F92AE
:100F38004F925F926F927F928F929F92AF92BF92E1
:100F4800CF92DF92EF92FF920F931F932F933F93CD
:100F58004F935F936F937F938F939F93AF93BF93B9
:100F6800CF93DF93EF93FF93A091A206B091A306CE
:100F78000DB60D920EB60D920E945D04A091A206C8
:100F8800B091A306CD91CDBFDD91DEBFFF91EF916A
:100F9800DF91CF91BF91AF919F918F917F916F9189
:100FA8005F914F913F912F911F910F91FF90EF907B
:100FB800DF90CF90BF90AF909F908F907F906F9071
:100FC8005F904F903F902F901F900F900FBE0F9003
:020FD80008957A
:100FDA00CF92DF92EF92FF920F931F93CF93DF93FB
:100FEA00EC0100919C0610919D06E090A006F090FD
:100FFA00A106C0909E06D0909F068091A20690916D
:10100A00A30602960E947F09C00FD11FE091A20693
:10101A00F091A306D383C283C017D10750F460911D
:10102A00A2067091A3066E5F7F4FC6010E941F0938
:10103A0014C06091A2067091A3066E5F7F4FC7012C
:10104A000E941F098091980690919906C817D9079E
:10105A0020F4D0939906C0939806DF91CF911F91FF
:0C106A000F91FF90EF90DF90CF90089561
:10107600CF92DF92EF920F931F9380E895E20E9442
:10108600A5090E94560A2FEF80E792E02150804082
:101096009040E1F700C000000F2EFAE8CF2EF6E0F0
:1010A600DF2EF02DEE24E39400E010E024E64EEA75
:1010B60050E060E083EC9AE00E945D000F2EF8E8B5
:1010C600CF2EF6E0DF2EF02D24E641EB50E060E077
:1010D60080E89AE00E945D000E94380780E090E078
:0C10E6001F910F91EF90DF90CF900895C4
:1010F200E89409C097FB3EF49095809570956195B0
:101102007F4F8F4F9F4F9923A9F0F92F96E9BB2765
:101112009395F695879577956795B795F111F8CFE1
:10112200FAF4BB0F11F460FF1BC06F5F7F4F8F4F4C
:101132009F4F16C0882311F096E911C0772321F042
:101142009EE8872F762F05C0662371F096E8862FDA
:1011520070E060E02AF09A95660F771F881FDAF731
:0A116200880F9695879597F9089578
:10116C001BBC89EF8ABD8BE08EBD89B7806189BFBE
:10117C00A091A206B091A306CD91CDBFDD91DEBFAB
:10118C00FF91EF91DF91CF91BF91AF919F918F9193
:10119C007F916F915F914F913F912F911F910F9183
:1011AC00FF90EF90DF90CF90BF90AF909F908F907B
:1011BC007F906F905F904F903F902F901F900F906B
:0A11CC000FBE0F90089581E0089512
:1011D6000F931F93CF93DF938091AB06882339F14A
:1011E60000E616E00FB6F8940F92D8011596ED9129
:1011F600FC911697C681D781CE0102960E947F097F
:101206008091AA0681508093AA068091AB068150F0
:101216008093AB060F900FBE8F89988D0E94CE04E7
:10122600CE010E94CE048091AB068111DBCFDF9107
:08123600CF911F910F91089563
:10123E00CF93DF93EB01488159814F3F2FEF520738
:10124E0021F4FC01A781B0850DC0DC01139601C00D
:10125E00DF011296ED91FC91139720813181421797
:10126E005307B0F71296ED91FC911397FB83EA8327
:10127E00D583C483BD83AC831396DC93CE93129730
:10128E0099878887FC0120812F5F2083DF91CF9182
:02129E000895B1
:1012A0000E94CF0988F09F5798F0B92F9927B7511E
:1012B000B0F0E1F0660F771F881F991F1AF0BA95FA
:1012C000C9F714C0B13091F00E94E70AB1E0089567
:1012D0000C94E70A672F782F8827B85F39F0B93F59
:1012E000CCF3869577956795B395D9F73EF49095AD
:0E12F0008095709561957F4F8F4F9F4F0895A9
:1012FE00CF93DF93FC01A085B185C281D381848118
:10130E0095819D838C83C481D581828193819B83BA
:10131E008A8311968D919C911297E817F90731F4F3
:10132E008481958112969C938E93119711861086C7
:0C133E008C9181508C93DF91CF91089529
:10134A00BC018AB188618AB9579A072E000C880BAA
:10135A00990B0E947B089B01AC0160E074E284E770
:10136A0099E40E94020B20E030E040E85FE30E942B
:10137A00CB0A0E94D20A6F3F710511F00CF070BDC2
:04138A0069B90895A0
:10138E0057FD9058440F551F59F05F3F71F0479528
:10139E00880F97FB991F61F09F3F79F0879508950D
:1013AE00121613061406551FF2CF4695F1DF08C02C
:1013BE00161617061806991FF1CF86957105610549
:0413CE0008940895E2
:1013D200CF93DF939C01FB01DC011196CD91DC914F
:1013E2001297D383C2838C819D81958384838C8160
:1013F2009D81DC0113967C936E9312977D836C839F
:1014020031872087F90180818F5F8083DF91CF91BF
:0214120008953B
:10141400E091A006F091A1068081811107C08FEFB1
:101424009FEF90939906809398060895E091A00603
:10143400F091A1060580F681E02D80819181909341
:081444009906809398060895B3
:10144C00CF93C82FC19A8BB38F709C2F907F892B11
:10145C008BBB0E94BA0A8BB3282F2F7030E1C39F2D
:10146C00C0011124822B8BBB0E94BA0ACF91089524
:10147C00CF93C82FC1988BB38F709C2F907F892BE3
:10148C008BBB0E94BA0A8BB3282F2F7030E1C39FFD
:10149C00C0011124822B8BBB0E94BA0ACF910895F4
:1014AC008AB3806F8ABB87B3866087BB82E00E9459
:1014BC003E0A88E20E943E0A8FE00E943E0A86E0C5
:0C14CC000E943E0A82E00E943E0A089541
:1014D800CF93DF93EC01892B51F00E94EE0A60E074
:1014E800CE010E94ED070E94C502811102C00E9430
:0814F8009407DF91CF910895E4
:1015000081E40E94260AC1E0D0E0219681E40E9495
:10151000260AC530D105C9F780E090E00E947F0619
:02152000F4CF06
:10152200092E0394000C11F4882352F0BB0F40F4EF
:10153200BF2B11F460FF04C06F5F7F4F8F4F9F4F2F
:0215420008950A
:10154400FC010396928381832FEF3FEF348323833F
:0C1554009683858390878783108208951A
:10156000CCE3D6E00E94EB0888818230D8F30E9459
:041570009407F8CF15
:10157400C29A8FE19EE40197F1F700C00000C2987F
:021584000895C8
:1015860081E40E94FA0A85E090E00E946C0AF8CF96
:0E1596005058BB27AA270E9418060C94910AF1
:0E15A4000E9450096894B1110C94E80A089551
:0E15B20000240A941616170618060906089556
:0E15C00000240A941216130614060506089558
:0E15CE00E894BB2766277727CB0197F908958D
:0C15DC008091A4068F5F8093A406089500
:0C15E80097F99F6780E870E060E00895CC
:0815F4005D9BFECF8CB9089548
:0815FC00FC0111861086089520
:081604000E943D050C94910ABF
:06160C000E94DC061895A7
:061612009FEF80EC08953B
:041618000C9400002E
:00000001FF
