:100000000C942D000C948B000C94A9010C94A90164
:100010000C94A9010C94A9010C94A9010C94A901B8
:100020000C94A9010C94A9010C94A9010C945700FB
:100030000C94A9010C94A9010C94A9010C94A90198
:100040000C94A9010C94A9010C94A9010C94A90188
:100050000C94A90100600062800011241FBECFE54E
:10006000D8E0DEBFCDBFE4E5F0E040E017C0B591D9
:10007000A59135912591059107FD0CC0959185912C
:10008000EF01F92FE82F05900D92A217B307D9F7CA
:10009000FE0104C01D92A217B307E1F7E935F4078A
:0E00A00031F70E949A010C945500F894FFCF9E
:1000AE001F920F920FB60F9211242F933F934F93DF
:1000BE005F936F937F938F939F93AF93BF93EF93C2
:1000CE00FF93809160009091610001969093610082
:1000DE0080936000CD9739F483E00E942A0110923C
:1000EE00610010926000FF91EF91BF91AF919F91CF
:1000FE008F917F916F915F914F913F912F910F90C3
:08010E000FBE0F901F90189521
:100116001F920F920FB60F9211242F933F934F9376
:100126005F936F937F938F939F93AF93BF93EF9359
:10013600FF930E945601FF91EF91BF91AF919F915E
:100146008F917F916F915F914F913F912F910F907A
:080156000FBE0F901F901895D9
:10015E00662379F06130D1F447B321E030E0B90184
:10016E0002C0660F771F8A95E2F7CB01842B87BBFF
:10017E00089547B321E030E0B90102C0660F771F42
:0E018E008A95E2F7CB018095842387BB089504
:10019C00662379F06130D1F444B321E030E0B90149
:1001AC0002C0660F771F8A95E2F7CB01842B84BBC4
:1001BC00089544B321E030E0B90102C0660F771F07
:0E01CC008A95E2F7CB018095842384BB0895C9
:1001DA00662379F06130D1F441B321E030E0B9010E
:1001EA0002C0660F771F8A95E2F7CB01842B81BB89
:1001FA00089541B321E030E0B90102C0660F771FCC
:0E020A008A95E2F7CB018095842381BB08958D
:10021800813051F028F0823071F0833099F00895E0
:1002280083B7877B83BF089583B78F7B83BF83B7EB
:10023800886083BF089583B7877F83BF83B780644F
:0C02480083BF089583B7886483BF0895C6
:10025400833049F018F4823051F00895863079F0F3
:10026400873049F0089583E00E946F01089582E089
:100274000E947A01089587E00E947A01089586E039
:060284000E9485010895AF
:10028A0061E083E00E94AF0061E082E00E94CE005C
:10029A0061E087E00E94CE0061E086E00E94ED0006
:0202AA000895B5
:1002AC0083E00E946F0182E00E947A0187E00E9445
:0A02BC007A0186E00E948501089592
:1002C600CF93C62F0E940C0181E00E9490018C2FD3
:0802D6000E94A201CF910895DE
:1002DE0098B321E030E002C0220F331F8A95E2F777
:0602EE00292728BB08953A
:1002F40095B321E030E002C0220F331F8A95E2F764
:06030400292725BB089526
:10030A0092B321E030E002C0220F331F8A95E2F750
:06031A00292722BB089513
:10032000882321F089B7816089BF089589B78E7FBE
:0403300089BF0895E4
:100334000E94450165E080E00E9463017894FFCF4C
:0E03440093B7987F93BF93B7892B83BF08951B
:040352000C94000007
:00000001FF
