:100000000C942D000C94890F0C94890F0C94890F7B
:100010000C94890F0C94890F0C94890F0C94830F06
:100020000C94890F0C94890F0C94890F0C94890FF0
:100030000C94890F0C94890F0C94890F0C94890FE0
:100040000C94890F0C94890F0C94890F0C94890FD0
:100050000C94890F006006B9800011241FBECFE503
:10006000D8E0DEBFCDBFE4E5F0E040E017C0B591D9
:10007000A59135912591059107FD0CC0959185912C
:10008000EF01F92FE82F05900D92A217B307D9F7CA
:10009000FE0104C01D92A217B307E1F7E935F4078A
:0E00A00031F70E944F0B0C945500F894FFCFDF
:0600AE0054310054320041
:0600B40049444C45000325
:1000BA002F923F924F925F926F927F928F92AF925E
:1000CA00BF92CF92DF92EF920F931F93CF93DF935A
:1000DA001C013A01862E2801022F10E0C8010E9455
:1000EA0033055C01892B09F40EC186E290E00E9477
:1000FA003305EC01892B81F086E2FE0111928A9583
:10010A00E9F7B88EAF8A01501109A00EB11E611429
:10011A007104810429F430C0C5010E948B07F3C021
:10012A00F301849187FC8081898FF301849187FC94
:10013A008081882301F1AE01465E5F4FA82DC3017D
:10014A000196A11DF8E06F0E711C811C2A2FFC017B
:10015A007491A7FD7081FA017193AF01E82FF92F0D
:10016A000196A11D349127FD3081332321F0861594
:10017A009705A80559F718A2F3E0FE1520F40F2EEB
:10018A00F3E0EF2EF02DEE8A8E010E5F1F4FC801AD
:10019A000E94770FCE010C960E94770FD987C887E5
:1001AA0084E090E08E1991099D878C87DB8BCA8B3E
:1001BA00A201B101C5010E94690899838883C1140B
:1001CA00D10409F4A2C0F601D183C0839EC0D093A2
:1001DA00B006C093AF068091B706813009F041C0DE
:1001EA008CE396E00E94190F85E496E00E94190FAD
:1001FA008EE496E00E94190F87E596E00E94190F97
:10020A0084E896E00E94190F8BE796E00E94190F86
:10021A0082E796E00E94190F89E696E00E94190F7C
:10022A0080E696E00E94190F84E896E09093AE0665
:10023A008093AD068BE796E09093AC068093AB066D
:10024A0010C08091B50681110CC0E091AF06F09103
:10025A00B00696898E89891720F0D093B006C0938C
:10026A00AF068091B2068F5F8093B2068E89909115
:10027A00B606981710F48093B60690E0FC01EE0FCC
:10028A00FF1FEE0FFF1FEE0FFF1F8E0F9F1FFC01B8
:10029A00E45CF94F0180F281E02DFD83EC838481D7
:1002AA0095819F838E83A481B58113961C930E93A7
:1002BA00129715830483EE89F0E0CF01880F991F06
:1002CA00880F991F880F991FE80FF91FE45CF94FEF
:1002DA00FB87EA8780818F5F80830F900FBE8091B2
:1002EA00B506882361F0E091AF06F091B0069689D1
:1002FA008E89981730F40E94580A81E016C081E06E
:10030A0014C081E012C08FEF10C00FB6F8940F929C
:10031A008091B7068F5F8093B7068091AF06909160
:10032A00B006892B09F08DCF52CFDF91CF911F9163
:10033A000F91EF90DF90CF90BF90AF908F907F900A
:0C034A006F905F904F903F902F900895AF
:10035600EF92FF920F931F93CF93DF938091B10695
:10036600811104C1C091A906D091AA067E018FEF22
:10037600E81AF80AF092AA06E092A906E114F10436
:10038600B9F48091AD069091AE062091AB063091FE
:10039600AC063093AE062093AD069093AC068093E0
:1003A600AB068091B3068F5F8093B3060E943F0E23
:1003B6008091A5069091A606E816F90610F480E04D
:1003C600B9C080E061E0E091AD06F091AE069081A3
:1003D600911107C02FEF3FEF3093A6062093A50695
:1003E600A9C0E091AD06F091AE060580F681E02D3C
:1003F6000680F781E02D22813381E216F30628F488
:100406003093A6062093A50695C0A285B3852481C0
:10041600358146815781E9015D834C832681378189
:1004260044815581E9015B834A83AF014E5F5F4F8B
:1004360011962D913C9112972417350731F4268198
:10044600378112963C932E931197138612869C91B0
:1004560091509C93A489B589109719F12685378503
:1004660000891189E9011D830C832089318906855C
:100476001785E9011B830A8311960D911C9112972A
:100486009F01245F3F4F0217130731F420893189FA
:1004960012963C932E931197158A148A9C9191502B
:1004A6009C9326899091B606921710F42093B6066F
:1004B60030E0D901AA0FBB1FAA0FBB1FAA0FBB1F93
:1004C6002A0F3B1FD901A45CB94F11960D90BC9120
:1004D600A02DB583A48314962D913C91159737834F
:1004E600268314962D913C911597E9015B834A83E7
:1004F60015965C934E931497A689B0E09D01220F42
:10050600331F220F331F220F331FA20FB31FA45C0A
:10051600B94FB387A2879C919F5F9C93A091AF062A
:10052600B091B006268956969C91921708F04BCF4B
:10053600862F49CFE091AF06F091B006268930E0CC
:10054600F901EE0FFF1FEE0FFF1FEE0FFF1F2E0F1D
:100556003F1FF901E45CF94F9081923008F081E089
:100566009091B406992361F081E00AC08091A706B4
:100576009091A80601969093A8068093A70680E01E
:0E058600DF91CF911F910F91FF90EF9008959C
:100594001F93CF93DF930FB6F8940F928091B10617
:1005A40081508093B1068091B1068111CAC08091B7
:1005B400B70681119BC0C8C0DB011596ED91FC9173
:1005C40016970680F781E02DA489B58986859785DD
:1005D40020893189EC013D832C838089918926858A
:1005E4003785EC013B832A83CF010C9611962D911C
:1005F4003C9112972817390731F480899189129612
:100604009C938E931197158A148A8C9181508C93A4
:10061400A285B3858481958126813781EC013D8350
:100624002C838681978124813581EC013B832A8345
:100634009F012E5F3F4F11968D919C9112978217C7
:10064400930731F48681978112969C938E93119728
:10065400138612868C9181508C9386899091B6066C
:10066400981710F48093B60690E0DC01AA0FBB1F24
:10067400AA0FBB1FAA0FBB1F8A0F9B1FDC01A45C20
:10068400B94F11960D90BC91A02DB583A4831496F7
:100694008D919C9115979783868314968D919C9147
:1006A4001597EC013B832A8315963C932E9314975C
:1006B400A689B0E0CD01880F991F880F991F880F74
:1006C400991FA80FB91FA45CB94FB387A2878C9157
:1006D4008F5F8C93A091AF06B091B0069689569621
:1006E4008C91891740F44093B40605C0E0E0F0E033
:1006F40062E776E041E0DB018C9181115DCFEF2B65
:1007040011F00E943F0EC091A706D091A806209731
:1007140061F011E00E94AB0181111093B40621979E
:10072400C9F71092A8061092A7068091B4068823F0
:1007340051F08091AF069091B0060E94580A81E072
:1007440003C080E001C080E00F900FBEDF91CF9125
:040754001F91089554
:100758002F923F924F926F927F928F92BF92CF9239
:10076800DF92EF92FF920F931F93CF93DF93CDB752
:10077800DEB728970FB6F894DEBF0FBECDBF7C0159
:100788004E835F8368873D832C8310E0BB24B3943A
:100798003C0180E8882E1301482CEAE12E0E311C1A
:1007A800411CFBE16F0E711C811C670188E0C80EBB
:1007B800D11C0FB6F8940F92F701928D838D98177C
:1007C80010F00230F1F4202F4E815F816885C70157
:1007D8000E94060BF7019189992361F0F1E1EF0E70
:1007E800F11CB70180E80E947004882331F00E9450
:1007F800580A03C081110E94580A0F900FBE81E069
:1008080055C08C819D81892B21F40F900FBE80E00B
:100818004DC0111105C0CE0101960E94270F1B2D56
:100828000F900FBE0E94670F0FB6F8940F92F70152
:10083800858D8F3F09F4158EF701868D8F3F09F45A
:10084800168E0F900FBEBE016C5F7F4FCE010196D2
:100858000E94940C811124C00FB6F8940F92F101F4
:10086800949147FC90810F900FBEF301849187FC0F
:10087800808198130FC06C817D81C6010E94B70EDC
:10088800C7010E94B10A0E94CA02811192CF0E9438
:10089800580A8FCFC7010E94B10A0E94CA0289CFA5
:1008A800C7010E94B10A0E94CA0280E028960FB6CA
:1008B800F894DEBF0FBECDBFDF91CF911F910F918E
:1008C800FF90EF90DF90CF90BF908F907F906F90C8
:0808D8004F903F902F9008950E
:1008E000CF93DF93A82FCB010596A11DFC015A2FB2
:1008F0000E943C0FDB011696ED91FC911797A4899D
:10090000B589C685D785808991899D838C83C08967
:10091000D189868597859B838A839F01245F3F4F7A
:1009200011968D919C9112978217930731F48089CB
:10093000918912969C938E931197158A148A8C91A3
:1009400081508C938091B106811160C0A285B385DE
:10095000C481D581868197819D838C83C681D7810F
:10096000848195819B838A839F012E5F3F4F1196DF
:100970008D919C9112978217930731F4868197810C
:1009800012969C938E931197138612868C918150A8
:100990008C9386899091B606981710F48093B606CA
:1009A00090E0DC01AA0FBB1FAA0FBB1FAA0FBB1F41
:1009B0008A0F9B1FDC01A45CB94F11960D90BC916E
:1009C000A02DB583A48314968D919C911597978340
:1009D00086831496CD91DC9115973B832A831596D7
:1009E0003C932E931497A689B0E0CD01880F991FF0
:1009F000880F991F880F991FA80FB91FA45CB94FC2
:100A0000B387A2878C918F5F8C931CC042E756E01E
:100A1000DA011196CD91DC911297D787C6878C8128
:100A20009D81918B808B8C819D81DC0113963C9301
:100A30002E9312973D832C83558B448BDA018C9136
:100A40008F5F8C93A091AF06B091B00696895696B1
:100A50008C91891720F481E08093B40601C080E076
:060A6000DF91CF91089523
:100A66000F931F93CF93DF939C01215031092B3FA6
:100A76003F4F18F4EC01249602C0C0E0D0E00E947B
:100A8600670F8091A1069091A206892B11F5EDE8DA
:100A9600F6E0A0E6B0E0B183A08313821282E8E319
:100AA600F6E0F093A206E093A10613821282118269
:100AB600108288ED95E013969C938E931297ED9392
:100AC600FC9390939E0680939D069093A006809338
:100AD6009F061C161D060CF069C080919F0690911A
:100AE600A0068C179D0708F464C0E0918D06F0916E
:100AF6008E066DE876E002C0BF01F90122813381DE
:100B06002C173D0728F42081318121153105A1F7E5
:100B16002091A1063091A206E217F30709F44CC012
:100B2600DB010D911C9111970C5F1F4F20813181C4
:100B36002D933C93228133812C1B3D0B29303105AB
:100B460098F0AF014C0F5D1FDA0113963C932E937C
:100B56001297D383C283DB012D913C91DA012D9349
:100B66003C93DB014D935C9322813381821B930B73
:100B76009093A00680939F0640919D0650919E06F5
:100B86008417950720F490939E0680939D063068FF
:100B9600338322831182108280919B0690919C065A
:100BA600019690939C0680939B0608C000E010E097
:100BB60005C000E010E002C000E010E00E94CA029A
:0C0BC600C801DF91CF911F910F9108959D
:100BD2006F927F928F929F92AF92BF92CF92DF924B
:100BE200EF92FF920F931F93CF93DF9300D000D029
:100BF2001F92CDB7DEB78C015B015D834C83E12C84
:100C0200992493943C0180E8882E6801E1E1CE0E9C
:100C1200D11C0FB6F8940F92F801F28CFF20B9F0B4
:100C2200B501C8010E945B0EFA94F801F28E80852C
:100C3200882349F0085F1F4FB80180E80E947004C2
:100C420081110E94580A0F900FBE81E053C08C811F
:100C52009D81892B21F40F900FBE80E04BC0E110E3
:100C620005C0CE0101960E94270FE92C0F900FBEFE
:100C72000E94670F0FB6F8940F92F801858D8F3F8F
:100C820009F4158EF801868D8F3F09F4168E0F90A8
:100C92000FBEBE016C5F7F4FCE0101960E94940C85
:100CA20081111BC0882DB3010E94C90E882379F0DF
:100CB2006C817D81C6010E94B70EC8010E94B10AF3
:100CC2000E94CA028111A5CF0E94580AA2CFC80170
:100CD2000E94B10A0E94CA029CCFC8010E94B10AB6
:100CE2000E94CA02882DB3010E94C90E882309F40A
:100CF20090CF80E00F900F900F900F900F90DF91A8
:100D0200CF911F910F91FF90EF90DF90CF90BF9006
:0C0D1200AF909F908F907F906F9008959D
:100D1E00BF92CF92DF92EF92FF920F931F93CF93DA
:100D2E00DF93EC01B62E0091A9061091AA06E09071
:100D3E00AD06F090AE06C090AB06D090AC0680919A
:100D4E00AF069091B00602960E94960DCF3F8FEFA0
:100D5E00D807B1F5BB20A1F1E0E6F6E0A181B281A2
:100D6E00C091AF06D091B006BD83AC83C091AF06E3
:100D7E00D091B00614968D919C9115979F838E837A
:100D8E001496CD91DC9115978091AF069091B00697
:100D9E0002969B838A838091AF069091B00602964D
:100DAE0015969C938E931497A091AF06B091B006B2
:100DBE001B96FC93EE931A9780818F5F808329C0D8
:100DCE00C00FD11FE091AF06F091B006D383C2835E
:100DDE00C017D10750F46091AF067091B0066E5FE8
:100DEE007F4FC6010E94360D14C06091AF06709100
:100DFE00B0066E5F7F4FC7010E94360D8091A5062B
:100E0E009091A606C817D90720F4D093A606C093D2
:100E1E00A506DF91CF911F910F91FF90EF90DF907C
:060E2E00CF90BF90089573
:100E34008091B106882321F081E08093B40608955F
:100E44001092B4062091B606822F90E0FC01EE0FBA
:100E5400FF1FEE0FFF1FEE0FFF1FE80FF91FE45CEB
:100E6400F94F3081311111C02150822F90E0FC01E3
:100E7400EE0FFF1FEE0FFF1FEE0FFF1FE80FF91F0E
:100E8400E45CF94F3081332379F3AC01440F551FEF
:100E9400440F551F440F551F480F591FFA01E45CB6
:100EA400F94FA181B28112966D917C91139772834F
:100EB4006183415C594F6417750779F4FC01EE0FA7
:100EC400FF1FEE0FFF1FEE0FFF1FE80FF91FE45C7B
:100ED400F94F4581568152834183FC01EE0FFF1F78
:100EE400EE0FFF1FEE0FFF1F8E0F9F1FFC01E45C30
:100EF400F94F0180F281E02D868197819093B006AD
:100F04008093AF062093B6068091AF069091B00609
:020F140008953E
:100F1600CF93DF93009709F467C0FC0134972281D1
:100F2600338133230CF060C040815181452B09F099
:100F36005BC0EF013F77338322830E94670F4A81AC
:100F46005B8180919F069091A006840F951F9093D8
:100F5600A00680939F06EDE8F6E001C0FC018081C3
:100F660091818C179D07D0F322813381BF01620FD7
:100F7600731FC617D70729F4240F351F338322831F
:100F8600EF012A813B81DE01A20FB31F8A179B075F
:100F9600C9F48091A1069091A206A817B90779F025
:100FA60012968D919C911397280F391F3B832A83A4
:100FB600A081B1818D919C919983888305C0B98365
:100FC600A88302C099838883EC17FD0711F0D183AB
:100FD600C0838091990690919A06019690939A06FD
:0E0FE600809399060E94CA02DF91CF91089570
:100FF40010C00E94590F58F00E94520F40F029F47B
:101004005F3F29F00C946D0F51110C94610F0C94F7
:10101400860F0E94DE0D68F39923B1F3552391F3F3
:10102400951B550BBB27AA2762177307840738F053
:101034009F5F5F4F220F331F441FAA1FA9F335D0B0
:101044000E2E3AF0E0E832D091505040E695001C64
:10105400CAF72BD0FE2F29D0660F771F881FBB1F1E
:10106400261737074807AB07B0E809F0BB0B802DFC
:10107400BF01FF2793585F4F3AF09E3F510578F028
:101084000C946D0F0C94610F5F3FE4F3983ED4F31E
:10109400869577956795B795F7959F5FC9F7880FFC
:1010A400911D9695879597F90895E1E0660F771F4E
:1010B400881FBB1F621773078407BA0720F0621BDF
:0E10C400730B840BBA0BEE1F88F7E0950895AE
:1010D20031E1FC013083319722E220833197A3E38F
:1010E200A083319760833197708331971082319753
:1010F20060E8608331971082319762E060833197B4
:1011020063E06083319764E06083319765E06083D8
:10111200319766E06083319767E06083319768E0DA
:101122006083319769E06083319760E16083319732
:101132003083319732E13083319733E13083319715
:1011420034E13083319735E13083319736E13083B2
:10115200319737E13083319738E13083319739E184
:101162003083319730E23083319731E230833197E7
:101172002083319723E22083319740833197508334
:10118200319726E22083319727E22083319728E2A4
:101192002083319729E22083319720E320833197FE
:0811A20021E3208386970895E4
:1011AA0011C00E94520F38F00E94590F20F039F4F2
:1011BA009F3F19F426F40C94860F0EF4E095E7FB92
:1011CA000C946D0FE92F0E94DE0D58F3BA176207CF
:1011DA0073078407950720F079F4A6F50C94600F3D
:1011EA000EF4E0950B2EBA2FA02D0B01B901900138
:1011FA000C01CA01A0011124FF27591B99F0593F7C
:10120A0050F4503E68F11A16F040A22F232F342FC3
:10121A004427585FF3CF469537952795A795F04011
:10122A005395C9F77EF41F16BA0B620B730B840B26
:10123A00BAF09150A1F0FF0FBB1F661F771F881FDE
:10124A00C2F70EC0BA0F621F731F841F48F4879536
:10125A0077956795B795F7959E3F08F0B0CF939528
:0E126A00880F08F09927EE0F97958795089545
:10127800EF92FF920F931F93CF93DF93FC01362FCA
:10128800892B09F44DC0238D222309F44BC0022F6A
:1012980010E0448DE42EF12C8FEF9FEFB8010E94EF
:1012A800A30E6E157F0508F43FC0EF010FB6F89442
:1012B8000F9260817181CB01249F800D911D1124B3
:1012C80095838483128E73836283015011090E9D66
:1012D800C0010F9D900D1E9D900D1124860F971F24
:1012E800978386838FEF858F868F31110DC0808518
:1012F800882391F02896BE0180E80E947004882314
:1013080059F00E94580A08C0CF0108960E94190F88
:10131800CE0141960E94190F0F900FBE81E005C0C3
:1013280080E003C080E001C080E0DF91CF911F9191
:081338000F91FF90EF90089562
:101340000F920FB6F8940F921F9211242F923F9292
:101350004F925F926F927F928F929F92AF92BF92C5
:10136000CF92DF92EF92FF920F931F932F933F93B1
:101370004F935F936F937F938F939F93AF93BF939D
:10138000CF93DF93EF93FF93A091AF06B091B00698
:101390000DB60D920EB60D920E94AB0181110E9406
:1013A0001A07A091AF06B091B006CD91CDBFDD91E7
:1013B000DEBFFF91EF91DF91CF91BF91AF919F91F0
:1013C0008F917F916F915F914F913F912F911F91DD
:1013D0000F91FF90EF90DF90CF90BF90AF909F90D4
:1013E0008F907F906F905F904F903F902F901F90C5
:0813F0000F900FBE0F9008954D
:1013F800CF92DF92EF920F931F93CF93DF93CDB7E6
:10140800DEB728970FB6F894DEBF0FBECDBF89E4CC
:10141800898385EB90E0A0E09E012E5F3F4FBE01DF
:10142800675F7F4FFC014491A7FD40810196A11D94
:10143800F90141939F01442319F06E177F0791F733
:10144800AE014F5F5F4F60E80F2EF3EACF2EF6E054
:10145800DF2EF02DE12C00E010E025E582E39FE08F
:101468000E945D00882391F0813081F4F8948FEF19
:101478009FEF9093A6068093A50681E08093B5061A
:101488001092AA061092A9060E94CD0C28960FB6B3
:10149800F894DEBF0FBECDBFDF91CF911F910F91A2
:0814A800EF90DF90CF90089552
:1014B0000F920FB6F8940F921F9211242F923F9221
:1014C0004F925F926F927F928F929F92AF92BF9254
:1014D000CF92DF92EF92FF920F931F932F933F9340
:1014E0004F935F936F937F938F939F93AF93BF932C
:1014F000CF93DF93EF93FF93A091AF06B091B00627
:101500000DB60D920EB60D920E941A07A091AF066D
:10151000B091B006CD91CDBFDD91DEBFFF91EF91CF
:10152000DF91CF91BF91AF919F918F917F916F91FB
:101530005F914F913F912F911F910F91FF90EF90ED
:10154000DF90CF90BF90AF909F908F907F906F90E3
:101550005F904F903F902F901F900F900FBE0F9075
:021560000895EC
:10156200CF92DF92EF920F931F93CF938C010FB61E
:10157200F8940F92FC01C68D1C16C4F48189811166
:1015820006C014C0F8018189811107C00FC068012B
:10159200F1E1CF0ED11C80E8E82E8E2DB6010E941B
:1015A200700481110E947B0FC15061F78FEFF80127
:1015B200868F0F900FBE0FB6F8940F92C58D1C1632
:1015C200C4F48085811106C014C0F80180858111A0
:1015D20007C00FC06801F8E0CF0ED11C80E8E82EEA
:1015E2008E2DB6010E94700481110E947B0FC150A2
:1015F20061F78FEFF801858F0F900FBECF911F918A
:0A1602000F91EF90DF90CF90089554
:10160C000F931F93CF93DF93EC01022F1A8D2C8D28
:10161C002223B9F1011116C030E08A819B810E940E
:10162C00760E2C8D8A819B81820F911D9B838A83E0
:10163C002C813D818217930720F1888199819B83AE
:10164C008A831FC030E08E819F810E94760E8C8D24
:10165C0090E09195819591092E813F81280F391F3A
:10166C003F832E83488159812417350730F42C8110
:10167C003D81820F931F9F838E83023011F41111D1
:10168C0011501F5F1A8F80E0DF91CF911F910F9146
:02169C000895AF
:10169E0080E895E20E94BC0D40E062E082E00E948C
:1016AE00D70B909394068093930640E062E082E01D
:1016BE000E94D70B909392068093910620919306E9
:1016CE0030919406232B31F1892B21F10F2EF7E95E
:1016DE00CF2EF6E0DF2EF02D0F2EF3E0EF2EF02DB5
:1016EE0000E010E024E64EEA50E060E089E19CE084
:1016FE000E945D000F2EF5E9CF2EF6E0DF2EF02DC5
:10170E0024E641EB50E060E085E99BE00E945D003D
:0C171E000E94FC0981E20E94730FFCCFC6
:10172A00CF93DF9300D000D0CDB7DEB788EC90E03E
:10173A009A8389831C821B8282E090E00E948F0E2A
:10174A00CE0101966C0120E8E22E00E020E030E0B4
:10175A006E2DA60180919106909192060E94AC038B
:10176A00813029F489819A8101969A83898341E09B
:10177A0050E0BE016D5F7F4F809193069091940671
:10178A000E94E905813059F46B817C81072E000C97
:10179A00880B990B0E94220E8DE00E94730F0E9403
:0417AA00580AD3CF37
:1017AE000F931F93CF93DF93282F362F882361F14A
:1017BE00082F10E0E62FF0E08FEF9FEFB8010E94A8
:1017CE00A30E6E177F0718F1239FC0011124813ECF
:1017DE00910504F5D32FC22F4F960E9433058C012D
:1017EE000097D1F0D11104C0FC019183808304C015
:1017FE004F96F80191838083F801C38FD48F61E0F7
:10180E00C8010E943C0908C000E010E005C000E0DD
:10181E0010E002C000E010E0C801DF91CF911F91EF
:04182E000F91089579
:10183200CF93DF9300D000D0CDB7DEB784E690E03F
:101842009A8389831C821B82CE0101966C0120E857
:10185200E22E00E020E030E06E2DA601809193069A
:10186200909194060E94AC03813029F489819A8177
:1018720001969A83898341E050E0BE016D5F7F4FFC
:1018820080919106909192060E94E905813059F467
:101892006B817C81072E000C880B990B0E94220E13
:0C18A2008DE00E94730F0E94580AD3CF03
:1018AE00E89409C097FB3EF49095809570956195EC
:1018BE007F4F8F4F9F4F9923A9F0F92F96E9BB27A2
:1018CE009395F695879577956795B795F111F8CF1E
:1018DE00FAF4BB0F11F460FF1BC06F5F7F4F8F4F89
:1018EE009F4F16C0882311F096E911C0772321F07F
:1018FE009EE8872F762F05C0662371F096E8862F17
:10190E0070E060E02AF09A95660F771F881FDAF76D
:0A191E00880F9695879597F90895B4
:10192800CF93DF930FB6F8940F922091A9063091C8
:10193800AA06DB014D915C914F3FBFEF5B0719F1A0
:10194800EC01E981FA81A091B306B881BA1741F098
:101958002E173F0728F0FB011182108281E014C086
:101968002E1B3F0B2417350748F4FB01421B530B72
:10197800518340830E94270F80E006C0DB011D923F
:101988001C9281E001C080E00F900FBEDF91CF91E3
:021998000895B0
:10199A001BBC89EF8ABD8BE08EBD89B7806189BF88
:1019AA00A091AF06B091B006CD91CDBFDD91DEBF5B
:1019BA00FF91EF91DF91CF91BF91AF919F918F915D
:1019CA007F916F915F914F913F912F911F910F914D
:1019DA00FF90EF90DF90CF90BF90AF909F908F9045
:1019EA007F906F905F904F903F902F901F900F9035
:0A19FA000FBE0F90089581E00895DC
:101A04000F931F93CF93DF938091B806882339F106
:101A140009E616E00FB6F8940F92D8011596ED91E9
:101A2400FC911697C681D781CE0102960E94960D2D
:101A34008091B70681508093B7068091B806815093
:101A44008093B8060F900FBE8F89988D0E948B07E4
:101A5400CE010E948B078091B8068111DBCFDF9104
:081A6400CF911F910F9108952D
:101A6C00CF93DF93EB01488159814F3F2FEF520702
:101A7C0021F4FC01A781B0850DC0DC01139601C0D7
:101A8C00DF011296ED91FC91139720813181421761
:101A9C005307B0F71296ED91FC911397FB83EA83F1
:101AAC00D583C483BD83AC831396DC93CE931297FA
:101ABC0099878887FC0120812F5F2083DF91CF914C
:021ACC0008957B
:101ACE000E94E60D88F09F5798F0B92F9927B751CD
:101ADE00B0F0E1F0660F771F881F991F1AF0BA95C4
:101AEE00C9F714C0B13091F00E94600FB1E00895B3
:101AFE000C94600F672F782F8827B85F39F0B93FA5
:101B0E00CCF3869577956795B395D9F73EF4909576
:0E1B1E008095709561957F4F8F4F9F4F089572
:101B2C00CF93DF93FC01A085B185C281D3818481E1
:101B3C0095819D838C83C481D581828193819B8384
:101B4C008A8311968D919C911297E817F90731F4BD
:101B5C008481958112969C938E9311971186108691
:0C1B6C008C9181508C93DF91CF910895F3
:101B7800BC018AB188618AB9579A072E000C880B74
:101B8800990B0E94590C9B01AC0160E074E284E758
:101B980099E40E947F0F20E030E040E85FE30E9474
:101BA800440F0E944B0F6F3F710511F00CF070BD90
:041BB80069B908956A
:101BBC0057FD9058440F551F59F05F3F71F04795F2
:101BCC00880F97FB991F61F09F3F79F087950895D7
:101BDC00121613061406551FF2CF4695F1DF08C0F6
:101BEC00161617061806991FF1CF86957105610513
:041BFC0008940895AC
:101C0000BB27FA01A62F6217710581059105330BD9
:101C100030FB66F0AA27660F771F881F991FAA1F3F
:101C2000A21710F0A21B63953850A9F7A05DAA3344
:101C300008F0A95DA19336F7B111B1931082CA01E2
:041C40000C94EB0E07
:101C4400CF93DF93CDB7DEB72B970FB6F894DEBFF3
:101C54000FBECDBF2AE0AE014F5F5F4F0E940A0F57
:101C6400CE0101960E94FB0E2B960FB6F894DEBFB0
:0A1C74000FBECDBFDF91CF910895A0
:101C7E00E091AD06F091AE068081811107C08FEF25
:101C8E009FEF9093A6068093A5060895E091AD066A
:101C9E00F091AE060580F681E02D808191819093C2
:081CAE00A6068093A506089527
:101CB600FC01248D2223B1F030E046815781420F8A
:101CC600531F57834683848195814817590720F00F
:101CD6008081918197838683CB014681578160E815
:061CE6000E94760E089535
:101CEC00CF92DF92EF92DC016A01E62E280F391FAA
:101CFC00A217B30751F0F6014491E7FC40814D93D4
:101D0C004FEFC41AD40AE40AF3CFEF90DF90CF90D0
:021D1C00089528
:101D1E00CF93DF93EC01892B51F00E94670F60E0A7
:101D2E00CE010E948F060E94CA02811102C00E943B
:081D3E00580ADF91CF910895CE
:101D4600AA1BBB1B51E107C0AA1FBB1FA617B707DB
:101D560010F0A61BB70B881F991F5A95A9F78095F7
:081D66009095BC01CD01089528
:101D6E00CF93DF93EB016091AF067091B006645F85
:101D7E007F4F0E94360D61E0CE010E948F06DF91EB
:041D8E00CF91089554
:101D92000FB6F8940F92A82FCB014A96A11DFC0111
:101DA2009491A7FD90810F900FBE81E0911180E088
:021DB200089592
:101DB400092E0394000C11F4882352F0BB0F40F455
:101DC400BF2B11F460FF04C06F5F7F4F8F4F9F4F95
:021DD400089570
:101DD600DC01FC01672F71917723E1F7329704C08C
:101DE6007C916D9370836291AE17BF07C8F3089517
:101DF600CF93DF93EC018881882331F021960E94EE
:0E1E0600730F89918111FBCFDF91CF91089569
:101E1400BB272A3051F4992342F4BDE29095809572
:0E1E2400709561957F4F8F4F9F4F0C94010E6C
:101E3200FC010396928381832FEF3FEF3483238348
:0C1E420096838583908787831082089523
:101E4E002091B306FC0120832091A9063091AA06A9
:061E5E0032832183089588
:101E6400CCE3D6E00E94020D88818230D8F30E9430
:041E7400580AF8CF41
:101E780057FD03C065917591089561917191089519
:0E1E88005058BB27AA270E94D5080C94DA0EEA
:0E1E96000E94670D6894B1110C94610F0895BD
:0E1EA40000240A94161617061806090608955B
:0E1EB20000240A94121613061406050608955D
:0E1EC000E894BB2766277727CB0197F9089592
:0C1ECE008091B1068F5F8093B1060895EB
:0C1EDA0097F99F6780E870E060E00895D1
:081EE6005D9BFECF8CB908954D
:081EEE00FC0111861086089525
:081EF60081E08093B406089519
:081EFE000E94FA070C94DA0EB1
:061F06000E94A0091895DD
:061F0C009FEF80EC089538
:041F12000C9400002B
:00000001FF
