:100000000C942A000C949A010C949A010C949A0175
:100010000C949A010C949A010C949A010C949A01F4
:100020000C949A010C949A010C949A010C949A01E4
:100030000C949A010C949A010C949A010C949A01D4
:100040000C949A010C949A010C949A010C949A01C4
:100050000C949A0111241FBECFE5D8E0DEBFCDBFBE
:0C0060000E944D010C943400F894FFCF76
:10006C00662379F06130D1F44BB321E030E0B90173
:10007C0002C0660F771F8A95E2F7CB01842B8BBBEE
:10008C0008954BB321E030E0B90102C0660F771F31
:0E009C008A95E2F7CB01809584238BBB0895F3
:1000AA00662379F06130D1F447B321E030E0B90139
:1000BA0002C0660F771F8A95E2F7CB01842B87BBB4
:1000CA00089547B321E030E0B90102C0660F771FF7
:0E00DA008A95E2F7CB018095842387BB0895B9
:1000E800662379F06130D1F448B321E030E0B901FA
:1000F80002C0660F771F8A95E2F7CB01842B88BB75
:10010800089548B321E030E0B90102C0660F771FB7
:0E0118008A95E2F7CB018095842388BB089579
:10012600662379F06130D1F444B321E030E0B901BF
:1001360002C0660F771F8A95E2F7CB01842B84BB3A
:10014600089544B321E030E0B90102C0660F771F7D
:0E0156008A95E2F7CB018095842384BB08953F
:10016400662379F06130D1F445B321E030E0B90180
:1001740002C0660F771F8A95E2F7CB01842B85BBFB
:10018400089545B321E030E0B90102C0660F771F3E
:0E0194008A95E2F7CB018095842385BB089500
:1001A200662379F06130D1F441B321E030E0B90146
:1001B20002C0660F771F8A95E2F7CB01842B81BBC1
:1001C200089541B321E030E0B90102C0660F771F04
:0E01D2008A95E2F7CB018095842381BB0895C6
:1001E000662379F06130D1F442B321E030E0B90107
:1001F00002C0660F771F8A95E2F7CB01842B82BB82
:10020000089542B321E030E0B90102C0660F771FC4
:0E0210008A95E2F7CB018095842382BB089586
:10021E00833049F018F4823059F00895863091F009
:10022E00873059F0089561E083E00E9474000895CC
:10023E0061E082E00E94B200089561E087E00E94D2
:0E024E00B200089561E086E00E94F00008957D
:10025C00833049F018F4823059F00895863091F0CB
:10026C00873059F0089560E083E00E94740008958F
:10027C0060E082E00E94B200089560E087E00E9496
:0E028C00B200089560E086E00E94F000089540
:10029A000E94640160E081E00E94360081E00E94D1
:1002AA008F01882319F00E94750102C00E94820101
:0E02BA008FE59AEE0197F1F700C00000EFCF3C
:1002C80061E083E00E94550061E082E00E949300B3
:1002D80061E087E00E94930061E086E00E94D1001F
:0202E800089577
:1002EA0083E00E940F0182E00E940F0187E00E94D2
:0A02FA000F0186E00E940F01089535
:1003040083E00E942E0182E00E942E0187E00E9479
:0A0314002E0186E00E942E010895DC
:10031E0029B330E0A90102C0559547958A95E2F7B9
:06032E00CA018170089570
:040334000C94000025
:00000001FF
