:100000000C942A000C9455020C9455020C94550241
:100010000C9455020C9455020C9455020C94550204
:100020000C9455020C9455020C9455020C945502F4
:100030000C9455020C9455020C9455020C945502E4
:100040000C9455020C9455020C9455020C945502D4
:100050000C94550211241FBECFE5D8E0DEBFCDBF02
:10006000E4E5F0E040E017C0B591A5913591259108
:10007000059107FD0CC095918591EF01F92FE82FAF
:1000800005900D92A217B307D9F7FE0104C01D9287
:10009000A217B307E1F7E435F40731F70E946700D0
:0800A0000C945200F894FFCF0C
:1000A8003132333400436F72726563742050617368
:1000B80073776F72640057726F6E67205061737345
:0500C800776F72640077
:1000CE00CF93DF93CDB7DEB7A9970FB6F894DEBF07
:1000DE000FBECDBF0E940B020E949B0128EA30E0AA
:1000EE0040E085E0F901DE011596742F0E9435027D
:1000FE002DEA30E040E081E1F901DE011A96742F1D
:10010E000E9435022EEB30E040E08FE0F901DE0177
:10011E005B96742F0E9435020E94ED0089838AE25D
:10012E000E944B0201E010E0CE0101966C011C0111
:10013E0090E8492E3E0125E0620E711C80E8882E63
:10014E00A12CB12C28C004E010E0442D9101882D83
:10015E00B3010E946601892B41F481E00E94500296
:10016E00CE010A960E94260215C081E00E9450021E
:10017E00CE014B960E9426029FEF29E688E1915010
:10018E0020408040E1F700C0000081E00E94500254
:10019E00EA2CFB2C87019FEF24E38CE0915020404A
:1001AE008040E1F700C0000078019FEFE91AF90ADC
:1001BE000E94ED00F601E00FF11F80838AE20E949B
:0C01CE004B0224E0E216F10429F7BDCF3B
:1001DA0061E080E00E94EC0161E081E00E94EC01B4
:1001EA0061E082E00E94EC012FEF89EF90E021505C
:1001FA0080409040E1F700C000000E945702807FD3
:10020A0039F38032E1F018F4803131F0E1CF8034F3
:10021A0041F18038C1F1DCCF60E080E00E94EC015E
:10022A000E945702807F09F43EC060E081E00E948C
:10023A00EC010E945702807FC1F582E3089560E0D5
:10024A0080E00E94EC010E945702807F81F160E009
:10025A0081E00E94EC010E945702807F51F585E3FC
:10026A00089560E080E00E94EC010E945702807FBE
:10027A0011F160E081E00E94EC010E945702807F48
:10028A00E1F488E3089560E080E00E94EC010E94B6
:10029A005702807FA1F060E081E00E94EC010E9499
:1002AA00570280E3089583E3089581E3089586E37E
:1002BA00089584E3089589E3089587E3089580E320
:0202CA00089595
:1002CC00CF92DF92EF920F931F936B01E82E0115E3
:1002DC00110519F101501109F6018491E7FC808197
:1002EC00882399F0F901949147FD9081992369F045
:1002FC000115110551F0891308C08FEFC81AD80ADF
:10030C00E80A2F5F3F4F4F4FE5CF90E0F901249162
:10031C0047FD2081821B910902C080E090E01F9173
:0A032C000F91EF90DF90CF9008953D
:1003360060E084E00E94CD0160E085E00E94CD018E
:1003460060E086E00E94CD0160E087E00E94CD017A
:1003560061E080E00E94CD0161E081E00E94CD0174
:1003660061E082E00E94CD012FEF89EF90E02150FD
:1003760080409040E1F700C0000061E080E00E940C
:10038600EC0161E081E00E94EC0161E082E00E9404
:04039600EC010895D9
:10039A00662379F06130D1F444B321E030E0B90149
:1003AA0002C0660F771F8A95E2F7CB01842B84BBC4
:1003BA00089544B321E030E0B90102C0660F771F07
:0E03CA008A95E2F7CB018095842384BB0895C9
:1003D800662379F06130D1F445B321E030E0B9010A
:1003E80002C0660F771F8A95E2F7CB01842B85BB85
:1003F800089545B321E030E0B90102C0660F771FC8
:0E0408008A95E2F7CB018095842385BB089589
:100416008FEF8ABB87B3836087BB80E60E9450025A
:100426008FE00E9450028CE00E94500281E00E9400
:1004360050022FEF80E792E0215080409040E1F794
:0604460000C00000089553
:10044C00CF93DF93EC018881882331F021960E94B1
:0E045C004B0289918111FBCFDF91CF91089562
:10046A00992777FD05C005900D920197E1F7089548
:0A047A0001900D920197E1F708953B
:10048400C19A8FE19EE40197F1F700C00000C19882
:020494000895C9
:0A049600C09A8BBB0E944202089539
:0A04A000C0988BBB0E944202089531
:0404AA000C940000AE
:0404AE0083B3089577
:00000001FF
