:100000000C942D000C941D110C941D110C941D11B9
:100010000C941D110C941D110C941D110C941711AE
:100020000C941D110C941D110C941D110C941D1198
:100030000C941D110C941D110C941D110C941D1188
:100040000C941D110C941D110C941D110C941D1178
:100050000C941D11006006B7800011241FBECFE56F
:10006000D8E0DEBFCDBFE4E5F0E040E017C0B591D9
:10007000A59135912591059107FD0CC0959185912C
:10008000EF01F92FE82F05900D92A217B307D9F7CA
:10009000FE0104C01D92A217B307E1F7E935F4078A
:0E00A00031F70E94600E0C945500F894FFCFCB
:0600AE0054310054320041
:0600B40049444C45000325
:1000BA002F923F924F925F926F927F928F92AF925E
:1000CA00BF92CF92DF92EF920F931F93CF93DF935A
:1000DA001C013A01862E2801022F10E0C8010E9455
:1000EA0016065C01892B09F40FC188E290E00E9490
:1000FA001606EC01892B81F088E2FE0111928A959D
:10010A00E9F7B88EAF8A01501109A00EB11E611429
:10011A007104810429F430C0C5010E94CF08F4C0DB
:10012A00F301849187FC8081898FF301849187FC94
:10013A008081882301F1AE01465E5F4FA82DC3017D
:10014A000196A11DF8E06F0E711C811C2A2FFC017B
:10015A007491A7FD7081FA017193AF01E82FF92F0D
:10016A000196A11D349127FD3081332321F0861594
:10017A009705A80559F718A2F3E0FE1520F40F2EEB
:10018A00F3E0EF2EF02DEE8AE9A28E010E5F1F4FEB
:10019A00C8010E940B11CE010C960E940B11D9873F
:1001AA00C88784E090E08E1991099D878C87DB8B44
:1001BA00CA8BA201B101C5010E94AD099983888346
:1001CA00C114D10409F4A2C0F601D183C0839EC030
:1001DA00D093AE06C093AD068091B506813009F082
:1001EA0041C08CE396E00E94A21085E496E00E944A
:1001FA00A2108EE496E00E94A21087E596E00E9483
:10020A00A21084E896E00E94A2108BE796E00E9472
:10021A00A21082E796E00E94A21089E696E00E9468
:10022A00A21080E696E00E94A21084E896E09093DD
:10023A00AC068093AB068BE796E09093AA06809370
:10024A00A90610C08091B30681110CC0E091AD06D9
:10025A00F091AE0696898E89891720F0D093AE0662
:10026A00C093AD068091B0068F5F8093B0068E89E9
:10027A009091B406981710F48093B40690E0FC01AC
:10028A00EE0FFF1FEE0FFF1FEE0FFF1F8E0F9F1FB8
:10029A00FC01E45CF94F0180F281E02DFD83EC83DF
:1002AA00848195819F838E83A481B58113961C9343
:1002BA000E93129715830483EE89F0E0CF01880F1D
:1002CA00991F880F991F880F991FE80FF91FE45C7F
:1002DA00F94FFB87EA8780818F5F80830F900FBE7B
:1002EA008091B306882361F0E091AD06F091AE06E5
:1002FA0096898E89981730F40E945E0C81E016C0A8
:10030A0081E014C081E012C08FEF10C00FB6F894DC
:10031A000F928091B5068F5F8093B5068091AD06E6
:10032A009091AE06892B09F08DCF52CFDF91CF91F4
:10033A001F910F91EF90DF90CF90BF90AF908F9069
:0E034A007F906F905F904F903F902F9008959E
:10035800EF92FF920F931F93CF93DF938091AF0695
:10036800811104C1C091A706D091A8067E018FEF24
:10037800E81AF80AF092A806E092A706E114F10438
:10038800B9F48091AB069091AC062091A906309102
:10039800AA063093AC062093AB069093AA068093E6
:1003A800A9068091B1068F5F8093B1060E94E30F82
:1003B8008091A3069091A406E816F90610F480E04F
:1003C800B9C080E061E0E091AB06F091AC069081A5
:1003D800911107C02FEF3FEF3093A4062093A30697
:1003E800A9C0E091AB06F091AC060580F681E02D3E
:1003F8000680F781E02D22813381E216F30628F486
:100408003093A4062093A30695C0A285B3852481C2
:10041800358146815781E9015D834C832681378187
:1004280044815581E9015B834A83AF014E5F5F4F89
:1004380011962D913C9112972417350731F4268196
:10044800378112963C932E931197138612869C91AE
:1004580091509C93A489B589109719F12685378501
:1004680000891189E9011D830C832089318906855A
:100478001785E9011B830A8311960D911C91129728
:100488009F01245F3F4F0217130731F420893189F8
:1004980012963C932E931197158A148A9C91915029
:1004A8009C9326899091B406921710F42093B40671
:1004B80030E0D901AA0FBB1FAA0FBB1FAA0FBB1F91
:1004C8002A0F3B1FD901A45CB94F11960D90BC911E
:1004D800A02DB583A48314962D913C91159737834D
:1004E800268314962D913C911597E9015B834A83E5
:1004F80015965C934E931497A689B0E09D01220F40
:10050800331F220F331F220F331FA20FB31FA45C08
:10051800B94FB387A2879C919F5F9C93A091AD062A
:10052800B091AE06268956969C91921708F04BCF4B
:10053800862F49CFE091AD06F091AE06268930E0CE
:10054800F901EE0FFF1FEE0FFF1FEE0FFF1F2E0F1B
:100558003F1FF901E45CF94F9081923008F081E087
:100568009091B206992361F081E00AC08091A506B6
:100578009091A60601969093A6068093A50680E022
:0E058800DF91CF911F910F91FF90EF9008959A
:100596002F923F924F926F927F928F92BF92CF92FD
:1005A600DF92EF92FF920F931F93CF93DF9300D0CA
:1005B60000D01F92CDB7DEB78C017D836C83B12C42
:1005C600D12CCC24C3943C0180E8882E7801E1E14B
:1005D600EE0EF11C0FB6F8940F92F801828D882367
:1005E600E1F08150828F80819181892B29F40E94CC
:1005F600BB10F80195838483F8018085882349F030
:10060600085F1F4FB80180E80E94530581110E94C0
:100616005E0C0F900FBE81E088C08C819D81892B76
:1006260021F40F900FBE80E080C0D11005C0CE012E
:1006360001960E94B010DC2C0F900FBE0E94FB109A
:100646000FB6F8940F92F801858D8F3F09F4158E39
:10065600F801868D8F3F09F4168E0F900FBEBE01EE
:100666006C5F7F4FCE0101960E948B0D81112AC0CF
:10067600882DB3010E9452108823F1F0F801808181
:100686009181892B51F40FB6F8940F92848195814C
:100696000E94CC06B82E0F900FBE6C817D81C701DB
:1006A6000E944010C8010E94B70C0E94AD03811140
:1006B60091CF0E945E0C8ECFC8010E94B70C0E949B
:1006C600AD0388CFC8010E94B70C0E94AD03882DE8
:1006D600B3010E945210882309F47CCFBB2021F17C
:1006E6000FB6F8940F92A82DC3014196A11DFC01E7
:1006F6008491A7FD8081882369F0A82DC3014696C1
:10070600A11DFC015A2F0E94D010FB01808164E0DC
:10071600681B01C060E0F801848195810E94EB07A7
:100726000F900FBE80E001C080E00F900F900F90F9
:100736000F900F90DF91CF911F910F91FF90EF9047
:10074600DF90CF90BF908F907F906F904F903F90AB
:040756002F90089543
:10075A001F93CF93DF930FB6F8940F928091AF0651
:10076A0081508093AF068091AF068111CAC08091F3
:10077A00B50681119BC0C8C0DB011596ED91FC91AD
:10078A0016970680F781E02DA489B5898685978515
:10079A0020893189EC013D832C83808991892685C2
:1007AA003785EC013B832A83CF010C9611962D9154
:1007BA003C9112972817390731F48089918912964A
:1007CA009C938E931197158A148A8C9181508C93DD
:1007DA00A285B3858481958126813781EC013D8389
:1007EA002C838681978124813581EC013B832A837E
:1007FA009F012E5F3F4F11968D919C911297821700
:10080A00930731F48681978112969C938E93119760
:10081A00138612868C9181508C9386899091B406A6
:10082A00981710F48093B40690E0DC01AA0FBB1F5E
:10083A00AA0FBB1FAA0FBB1F8A0F9B1FDC01A45C58
:10084A00B94F11960D90BC91A02DB583A48314962F
:10085A008D919C9115979783868314968D919C917F
:10086A001597EC013B832A8315963C932E93149794
:10087A00A689B0E0CD01880F991F880F991F880FAC
:10088A00991FA80FB91FA45CB94FB387A2878C918F
:10089A008F5F8C93A091AD06B091AE06968956965D
:1008AA008C91891740F44093B20605C0E0E0F0E06D
:1008BA0062E776E041E0DB018C9181115DCFEF2B9D
:1008CA0011F00E94E30FC091A506D091A6062097C9
:1008DA0061F011E00E94AC0181111093B2062197D8
:1008EA00C9F71092A6061092A5068091B20688232F
:1008FA0051F08091AD069091AE060E945E0C81E0A7
:10090A0003C080E001C080E00F900FBEDF91CF915D
:04091A001F9108958C
:10091E002F923F924F926F927F928F92BF92CF9271
:10092E00DF92EF92FF920F931F93CF93DF93CDB78A
:10093E00DEB728970FB6F894DEBF0FBECDBF7C0191
:10094E004E835F8368873D832C8310E0BB24B39472
:10095E003C0180E8882E1301482CEAE12E0E311C52
:10096E00411CFBE16F0E711C811C670188E0C80EF3
:10097E00D11C0FB6F8940F92F701928D838D9817B4
:10098E0010F00230F1F4202F4E815F816885C7018F
:10099E000E94470BF7019189992361F0F1E1EF0E67
:1009AE00F11CB70180E80E945305882331F00E94A4
:1009BE005E0C03C081110E945E0C0F900FBE81E091
:1009CE0055C08C819D81892B21F40F900FBE80E044
:1009DE004DC0111105C0CE0101960E94B0101B2D05
:1009EE000F900FBE0E94FB100FB6F8940F92F701F6
:1009FE00858D8F3F09F4158EF701868D8F3F09F493
:100A0E00168E0F900FBEBE016C5F7F4FCE0101960A
:100A1E000E948B0D811124C00FB6F8940F92F10134
:100A2E00949147FC90810F900FBEF301849187FC47
:100A3E00808198130FC06C817D81C6010E94401089
:100A4E00C7010E94B70C0E94AD03811192CF0E9484
:100A5E005E0C8FCFC7010E94B70C0E94AD0389CFE9
:100A6E00C7010E94B70C0E94AD0380E028960FB616
:100A7E00F894DEBF0FBECDBFDF91CF911F910F91C6
:100A8E00FF90EF90DF90CF90BF908F907F906F9000
:080A9E004F903F902F90089546
:100AA600CF93DF93A82FCB010596A11DFC015A2FEA
:100AB6000E94D010DB011696ED91FC911797A48940
:100AC600B589C685D785808991899D838C83C089A0
:100AD600D189868597859B838A839F01245F3F4FB3
:100AE60011968D919C9112978217930731F4808904
:100AF600918912969C938E931197158A148A8C91DC
:100B060081508C938091AF06811160C0A285B38518
:100B1600C481D581868197819D838C83C681D78147
:100B2600848195819B838A839F012E5F3F4F119617
:100B36008D919C9112978217930731F48681978144
:100B460012969C938E931197138612868C918150E0
:100B56008C9386899091B406981710F48093B40606
:100B660090E0DC01AA0FBB1FAA0FBB1FAA0FBB1F79
:100B76008A0F9B1FDC01A45CB94F11960D90BC91A6
:100B8600A02DB583A48314968D919C911597978378
:100B960086831496CD91DC9115973B832A8315960F
:100BA6003C932E931497A689B0E0CD01880F991F28
:100BB600880F991F880F991FA80FB91FA45CB94FFA
:100BC600B387A2878C918F5F8C931CC042E756E057
:100BD600DA011196CD91DC911297D787C6878C8161
:100BE6009D81918B808B8C819D81DC0113963C933A
:100BF6002E9312973D832C83558B448BDA018C916F
:100C06008F5F8C93A091AD06B091AE0696895696ED
:100C16008C91891720F481E08093B20601C080E0B0
:060C2600DF91CF9108955B
:100C2C000F931F93CF93DF939C01215031092B3FDE
:100C3C003F4F18F4EC01249602C0C0E0D0E00E94B3
:100C4C00FB1080919F069091A006892B11F5EDE881
:100C5C00F6E0A0E6B0E0B183A08313821282E8E351
:100C6C00F6E0F093A006E0939F06138212821182A5
:100C7C00108288ED95E013969C938E931297ED93CA
:100C8C00FC9390939C0680939B0690939E06809376
:100C9C009D061C161D060CF069C080919D06909156
:100CAC009E068C179D0708F464C0E0918D06F091A8
:100CBC008E066DE876E002C0BF01F9012281338116
:100CCC002C173D0728F42081318121153105A1F71E
:100CDC0020919F063091A006E217F30709F44CC04F
:100CEC00DB010D911C9111970C5F1F4F20813181FD
:100CFC002D933C93228133812C1B3D0B29303105E4
:100D0C0098F0AF014C0F5D1FDA0113963C932E93B4
:100D1C001297D383C283DB012D913C91DA012D9381
:100D2C003C93DB014D935C9322813381821B930BAB
:100D3C0090939E0680939D0640919B0650919C0635
:100D4C008417950720F490939C0680939B0630683B
:100D5C0033832283118210828091990690919A0696
:100D6C00019690939A068093990608C000E010E0D3
:100D7C0005C000E010E002C000E010E00E94AD03EE
:0C0D8C00C801DF91CF911F910F910895D5
:100D98000F931F93CF93DF93FC01892B09F486C02F
:100DA8002689A091AD06B091AE0656968C9128176B
:100DB80008F070C084859585992364F0A091AD06EC
:100DC800B091AE0656963C9184E090E0831B910961
:100DD8009587848730E0C901880F991F880F991F6C
:100DE800880F991F280F391F245C394F82859385F6
:100DF8008217930709F045C0EF018F010E5F1F4F5F
:100E0800C8010E941D0FE091AD06F091AE068689DB
:100E18008E8B9091B406981710F48093B40690E0E6
:100E2800FC01EE0FFF1FEE0FFF1FEE0FFF1F8E0FCF
:100E38009F1FFC01E45CF94F0180F281E02DFD83E6
:100E4800EC83848195819F838E83A481B5811396D9
:100E58001C930E931297158304838E8990E0FC01EE
:100E6800EE0FFF1FEE0FFF1FEE0FFF1FE80FF91F1A
:100E7800E45CF94FFB87EA8780818F5F808381E09C
:100E880016C0A091AD06B091AE0656968C91868B91
:100E980081E00DC0A091AD06B091AE0681E021A120
:100EA80056969C91291718F080E001C080E0DF91E8
:080EB800CF911F910F910895E5
:100EC000BF92CF92DF92EF92FF920F931F93CF9337
:100ED000DF93EC01B62E0091A7061091A806E090D2
:100EE000AB06F090AC06C090A906D090AA068091FF
:100EF000AD069091AE0602960E941D0FCF3F8FEF78
:100F0000D807B1F5BB20A1F1E0E6F6E0A181B281FE
:100F1000C091AD06D091AE06BD83AC83C091AD0645
:100F2000D091AE0614968D919C9115979F838E83D8
:100F30001496CD91DC9115978091AD069091AE06F7
:100F400002969B838A838091AD069091AE060296AD
:100F500015969C938E931497A091AD06B091AE0612
:100F60001B96FC93EE931A9780818F5F808329C034
:100F7000C00FD11FE091AD06F091AE06D383C283BE
:100F8000C017D10750F46091AD067091AE066E5F48
:100F90007F4FC6010E94930E14C06091AD06709100
:100FA000AE066E5F7F4FC7010E94930E8091A3062D
:100FB0009091A406C817D90720F4D093A406C09333
:100FC000A306DF91CF911F910F91FF90EF90DF90DB
:060FD000CF90BF900895D0
:100FD6000F931F93CF93DF93FC01892B09F466C00F
:100FE60091A1961708F4962F8689891709F45EC091
:100FF60022A1213009F05AC0968B248535853323EA
:1010060034F024E030E0291B31093587248790E04D
:101016009C01220F331F220F331F220F331F820F13
:10102600931F845C994F2285338528173907F1F57C
:10103600EF018F010E5F1F4FC8010E941D0F8E89A1
:101046009091B406981710F48093B40690E0FC01D2
:10105600EE0FFF1FEE0FFF1FEE0FFF1F8E0F9F1FDE
:10106600FC01E45CF94F0180F281E02DFD83EC8305
:10107600848195819F838E83A481B58113961C9369
:101086000E931297158304838E8990E0FC01EE0F70
:10109600FF1FEE0FFF1FEE0FFF1FE80FF91FE45CA7
:1010A600F94FFB87EA8780818F5F8083DF91CF913D
:0610B6001F910F91089547
:1010BC008091AF06882321F081E08093B2060895D9
:1010CC001092B2062091B406822F90E0FC01EE0F34
:1010DC00FF1FEE0FFF1FEE0FFF1FE80FF91FE45C61
:1010EC00F94F3081311111C02150822F90E0FC0159
:1010FC00EE0FFF1FEE0FFF1FEE0FFF1FE80FF91F84
:10110C00E45CF94F3081332379F3AC01440F551F64
:10111C00440F551F440F551F480F591FFA01E45C2B
:10112C00F94FA181B28112966D917C9113977283C4
:10113C006183415C594F6417750779F4FC01EE0F1C
:10114C00FF1FEE0FFF1FEE0FFF1FE80FF91FE45CF0
:10115C00F94F4581568152834183FC01EE0FFF1FED
:10116C00EE0FFF1FEE0FFF1F8E0F9F1FFC01E45CA5
:10117C00F94F0180F281E02D868197819093AE0624
:10118C008093AD062093B4068091AD069091AE0687
:02119C000895B4
:10119E00CF93DF93009709F467C0FC013497228147
:1011AE00338133230CF060C040815181452B09F00F
:1011BE005BC0EF013F77338322830E94FB104A818D
:1011CE005B8180919D0690919E06840F951F909352
:1011DE009E0680939D06EDE8F6E001C0FC0180813D
:1011EE0091818C179D07D0F322813381BF01620F4D
:1011FE00731FC617D70729F4240F351F3383228395
:10120E00EF012A813B81DE01A20FB31F8A179B07D4
:10121E00C9F480919F069091A006A817B90779F09E
:10122E0012968D919C911397280F391F3B832A8319
:10123E00A081B1818D919C919983888305C0B983DA
:10124E00A88302C099838883EC17FD0711F0D18320
:10125E00C083809197069091980601969093980678
:0E126E00809397060E94AD03DF91CF91089503
:10127C0010C00E94ED1058F00E94E61040F029F4C6
:10128C005F3F29F00C94011151110C94F5100C9442
:10129C001A110E94650F68F39923B1F3552391F34A
:1012AC00951B550BBB27AA2762177307840738F0C9
:1012BC009F5F5F4F220F331F441FAA1FA9F335D026
:1012CC000E2E3AF0E0E832D091505040E695001CDA
:1012DC00CAF72BD0FE2F29D0660F771F881FBB1F94
:1012EC00261737074807AB07B0E809F0BB0B802D72
:1012FC00BF01FF2793585F4F3AF09E3F510578F09E
:10130C000C9401110C94F5105F3FE4F3983ED4F368
:10131C00869577956795B795F7959F5FC9F7880F71
:10132C00911D9695879597F90895E1E0660F771FC3
:10133C00881FBB1F621773078407BA0720F0621B54
:0E134C00730B840BBA0BEE1F88F7E095089523
:10135A0031E1FC013083319722E220833197A3E304
:10136A00A0833197608331977083319710823197C8
:10137A0060E8608331971082319762E06083319729
:10138A0063E06083319764E06083319765E060834E
:10139A00319766E06083319767E06083319768E050
:1013AA006083319769E06083319760E160833197A8
:1013BA003083319732E13083319733E1308331978B
:1013CA0034E13083319735E13083319736E1308328
:1013DA00319737E13083319738E13083319739E1FA
:1013EA003083319730E23083319731E2308331975D
:1013FA002083319723E220833197408331975083AA
:10140A00319726E22083319727E22083319728E219
:10141A002083319729E22083319720E32083319773
:08142A0021E320838697089559
:1014320011C00E94E61038F00E94ED1020F039F43D
:101442009F3F19F426F40C941A110EF4E095E7FB71
:101452000C940111E92F0E94650F58F3BA17620725
:1014620073078407950720F079F4A6F50C94F4101D
:101472000EF4E0950B2EBA2FA02D0B01B9019001AD
:101482000C01CA01A0011124FF27591B99F0593FF1
:1014920050F4503E68F11A16F040A22F232F342F39
:1014A2004427585FF3CF469537952795A795F04087
:1014B2005395C9F77EF41F16BA0B620B730B840B9C
:1014C200BAF09150A1F0FF0FBB1F661F771F881F54
:1014D200C2F70EC0BA0F621F731F841F48F48795AC
:1014E20077956795B795F7959E3F08F0B0CF93959E
:0E14F200880F08F09927EE0F979587950895BB
:10150000EF92FF920F931F93CF93DF93FC01362F3F
:10151000892B09F44DC0238D222309F44BC0022FDF
:1015200010E0448DE42EF12C8FEF9FEFB8010E9464
:101530002C106E157F0508F43FC0EF010FB6F8942C
:101540000F9260817181CB01249F800D911D112428
:1015500095838483128E73836283015011090E9DDB
:10156000C0010F9D900D1E9D900D1124860F971F99
:10157000978386838FEF858F868F31110DC080858D
:10158000882391F02896BE0180E80E9453058823A5
:1015900059F00E945E0C08C0CF0108960E94A2106C
:1015A000CE0141960E94A2100F900FBE81E005C0AF
:1015B00080E003C080E001C080E0DF91CF911F9107
:0815C0000F91FF90EF900895D8
:1015C8000F931F93CF93DF93FC01892B09F451C02C
:1015D80082A1815082A3268991A1291709F44BC0C1
:1015E80081114BC0EF018F010E5F1F4FC8010E9490
:1015F8001D0F89A18E8B24E030E0281B31093D871F
:101608002C879091B406981710F48093B40690E054
:10161800FC01EE0FFF1FEE0FFF1FEE0FFF1F8E0FD7
:101628009F1FFC01E45CF94F0180F281E02DFD83EE
:10163800EC83848195819F838E83A481B5811396E1
:101648001C930E93129715830483EE89F0E0CF0163
:10165800880F991F880F991F880F991FE80FF91F86
:10166800E45CF94FFB87EA8780818F5F808381E0A4
:1016780005C080E003C080E001C080E0DF91CF9129
:061688001F910F9108956F
:10168E000F931F93CF93DF93EC01022F1A8D2C8DA6
:10169E0021110CC088819981892B09F042C08C815F
:1016AE009D810E94E40A1D821C8242C0011117C056
:1016BE0030E08A819B810E94FF0F2C8D8A819B8155
:1016CE00820F911D9B838A832C813D818217930704
:1016DE0050F1888199819B838A8380E029C030E014
:1016EE008E819F810E94FF0F8C8D90E09195819548
:1016FE0091092E813F81280F391F3F832E83488108
:10170E0059812417350730F42C813D81820F931FA8
:10171E009F838E83023049F4112349F0115080E0EB
:10172E0007C080E005C080E003C080E001C080E01B
:0E173E001F5F1A8FDF91CF911F910F910895B9
:10174C000F920FB6F8940F921F9211242F923F9282
:10175C004F925F926F927F928F929F92AF92BF92B5
:10176C00CF92DF92EF92FF920F931F932F933F93A1
:10177C004F935F936F937F938F939F93AF93BF938D
:10178C00CF93DF93EF93FF93A091AD06B091AE068C
:10179C000DB60D920EB60D920E94AC0181110E94F5
:1017AC005E08A091AD06B091AE06CD91CDBFDD9196
:1017BC00DEBFFF91EF91DF91CF91BF91AF919F91E0
:1017CC008F917F916F915F914F913F912F911F91CD
:1017DC000F91FF90EF90DF90CF90BF90AF909F90C4
:1017EC008F907F906F905F904F903F902F901F90B5
:0817FC000F900FBE0F9008953D
:10180400CF92DF92EF920F931F93CF93DF93CDB7D5
:10181400DEB728970FB6F894DEBF0FBECDBF89E4BC
:10182400898385EB90E0A0E09E012E5F3F4FBE01CF
:10183400675F7F4FFC014491A7FD40810196A11D84
:10184400F90141939F01442319F06E177F0791F723
:10185400AE014F5F5F4F60E80F2EF1EACF2EF6E046
:10186400DF2EF02DE12C00E010E025E586EC90E180
:101874000E945D00882391F0813081F4F8948FEF09
:101884009FEF9093A4068093A30681E08093B30610
:101894001092A8061092A7060E94C40D28960FB6AF
:1018A400F894DEBF0FBECDBFDF91CF911F910F9192
:0818B400EF90DF90CF90089542
:1018BC000F920FB6F8940F921F9211242F923F9211
:1018CC004F925F926F927F928F929F92AF92BF9244
:1018DC00CF92DF92EF92FF920F931F932F933F9330
:1018EC004F935F936F937F938F939F93AF93BF931C
:1018FC00CF93DF93EF93FF93A091AD06B091AE061B
:10190C000DB60D920EB60D920E945E08A091AD061A
:10191C00B091AE06CD91CDBFDD91DEBFFF91EF91C1
:10192C00DF91CF91BF91AF919F918F917F916F91EB
:10193C005F914F913F912F911F910F91FF90EF90DD
:10194C00DF90CF90BF90AF909F908F907F906F90D3
:10195C005F904F903F902F901F900F900FBE0F9065
:02196C000895DC
:10196E00CF92DF92EF920F931F93CF938C010FB60E
:10197E00F8940F92FC01C68D1C16C4F48189811156
:10198E0006C014C0F8018189811107C00FC068011B
:10199E00F1E1CF0ED11C80E8E82E8E2DB6010E940B
:1019AE00530581110E940F11C15061F78FEFF8019D
:1019BE00868F0F900FBE0FB6F8940F92C58D1C1622
:1019CE00C4F48085811106C014C0F8018085811190
:1019DE0007C00FC06801F8E0CF0ED11C80E8E82EDA
:1019EE008E2DB6010E94530581110E940F11C15018
:1019FE0061F78FEFF801858F0F900FBECF911F917A
:0A1A0E000F91EF90DF90CF90089544
:101A18000F931F93CF93DF93282F362F882361F1DD
:101A2800082F10E0E62FF0E08FEF9FEFB8010E943B
:101A38002C106E177F0718F1239FC0011124813ED7
:101A4800910504F5D32FC22F4F960E9416068C01DC
:101A58000097D1F0D11104C0FC019183808304C0A8
:101A68004F96F80191838083F801C38FD48F61E08A
:101A7800C8010E94800A08C000E010E005C000E02C
:101A880010E002C000E010E0C801DF91CF911F9183
:041A98000F9108950D
:101A9C00E89409C097FB3EF49095809570956195FC
:101AAC007F4F8F4F9F4F9923A9F0F92F96E9BB27B2
:101ABC009395F695879577956795B795F111F8CF2E
:101ACC00FAF4BB0F11F460FF1BC06F5F7F4F8F4F99
:101ADC009F4F16C0882311F096E911C0772321F08F
:101AEC009EE8872F762F05C0662371F096E8862F27
:101AFC0070E060E02AF09A95660F771F881FDAF77E
:0A1B0C00880F9695879597F90895C4
:101B1600CF93DF930FB6F8940F922091A7063091DA
:101B2600A806DB014D915C914F3FBFEF5B0719F1B2
:101B3600EC01E981FA81A091B106B881BA1741F0AA
:101B46002E173F0728F0FB011182108281E014C096
:101B56002E1B3F0B2417350748F4FB01421B530B82
:101B6600518340830E94B01080E006C0DB011D92C5
:101B76001C9281E001C080E00F900FBEDF91CF91F3
:021B86000895C0
:101B88001BBC89EF8ABD8BE08EBD89B7806189BF98
:101B9800A091AD06B091AE06CD91CDBFDD91DEBF6F
:101BA800FF91EF91DF91CF91BF91AF919F918F916D
:101BB8007F916F915F914F913F912F911F910F915D
:101BC800FF90EF90DF90CF90BF90AF909F908F9055
:101BD8007F906F905F904F903F902F901F900F9045
:0A1BE8000FBE0F90089581E00895EC
:101BF2000F931F93CF93DF938091B606882339F119
:101C020009E616E00FB6F8940F92D8011596ED91F9
:101C1200FC911697C681D781CE0102960E941D0FB4
:101C22008091B50681508093B5068091B6068150A9
:101C32008093B6060F900FBE8F89988D0E94CF08B1
:101C4200CE010E94CF088091B6068111DBCFDF91D1
:081C5200CF911F910F9108953D
:101C5A0082E090E00E941810C1E0D0E081E090E0BC
:101C6A000E94181080919106909192060097F9F0BF
:101C7A006AE070E00E94CB028130A9F4BE010D2E09
:101C8A00000C880B990B0E94A90F219600E020E016
:101C9A0030E040E050E060E0809191069091920639
:101CAA000E948F04DBCF8FE30E940711D7CF81E216
:061CBA000E940711D3CFC8
:101CC00080E895E20E94430F81E00E94C60F909346
:101CD0009206809391060F2EF5E9CF2EF6E0DF2EC7
:101CE000F02D0F2EF3E0EF2EF02D00E010E024E6B3
:101CF0004EEA50E060E083EF9EE00E945D000F2E10
:101D0000F3E9CF2EF6E0DF2EF02D24E641EB50E094
:101D100060E08DE29EE00E945D000E94020C81E284
:061D20000E940711FCCF38
:101D2600CF93DF93EB01488159814F3F2FEF520745
:101D360021F4FC01A781B0850DC0DC01139601C01A
:101D4600DF011296ED91FC911397208131814217A4
:101D56005307B0F71296ED91FC911397FB83EA8334
:101D6600D583C483BD83AC831396DC93CE9312973D
:101D760099878887FC0120812F5F2083DF91CF918F
:021D86000895BE
:101D88000E946D0F88F09F5798F0B92F9927B75187
:101D9800B0F0E1F0660F771F881F991F1AF0BA9507
:101DA800C9F714C0B13091F00E94F410B1E0089561
:101DB8000C94F410672F782F8827B85F39F0B93F53
:101DC800CCF3869577956795B395D9F73EF49095BA
:0E1DD8008095709561957F4F8F4F9F4F0895B6
:101DE600C1E681E090E00E941810809191069091E2
:101DF60092060097D9F06AE070E00E94CB0281302B
:101E060089F48C2F0E940711CF5F00E020E030E0BC
:101E160040E050E060E080919106909192060E9429
:101E26008F04DFCF8AE20E940711DBCF8FE50E9485
:041E36000711D7CFEA
:101E3A00CF93DF93FC01A085B185C281D3818481D0
:101E4A0095819D838C83C481D581828193819B8373
:101E5A008A8311968D919C911297E817F90731F4AC
:101E6A008481958112969C938E9311971186108680
:0C1E7A008C9181508C93DF91CF910895E2
:101E8600BC018AB188618AB9579A072E000C880B63
:101E9600990B0E94500D9B01AC0160E074E284E74F
:101EA60099E40E94131120E030E040E85FE30E94CD
:101EB600D8100E94DF106F3F710511F00CF070BD55
:041EC60069B9089559
:101ECA0057FD9058440F551F59F05F3F71F04795E1
:101EDA00880F97FB991F61F09F3F79F087950895C6
:101EEA00121613061406551FF2CF4695F1DF08C0E5
:101EFA00161617061806991FF1CF86957105610502
:041F0A00089408959A
:101F0E00BB27FA01A62F6217710581059105330BC8
:101F1E0030FB66F0AA27660F771F881F991FAA1F2E
:101F2E00A21710F0A21B63953850A9F7A05DAA3333
:101F3E0008F0A95DA19336F7B111B1931082CA01D1
:041F4E000C9474106B
:101F5200CF93DF93CDB7DEB72B970FB6F894DEBFE2
:101F62000FBECDBF2AE0AE014F5F5F4F0E949310BC
:101F7200CE0101960E9484102B960FB6F894DEBF14
:0A1F82000FBECDBFDF91CF9108958F
:101F8C000F93CF93DF93482F60E081E00E940C0DFC
:101F9C00EC01009769F01D821C82198218821E8246
:101FAC0000E020E030E040E050E060E00E948F0470
:0A1FBC00CE01DF91CF910F9108953F
:101FC600E091AB06F091AC068081811107C08FEFDE
:101FD6009FEF9093A4068093A3060895E091AB0625
:101FE600F091AC060580F681E02D80819181909379
:081FF600A4068093A3060895E0
:101FFE00CF92DF92EF92DC016A01E62E280F391F95
:10200E00A217B30751F0F6014491E7FC40814D93BE
:10201E004FEFC41AD40AE40AF3CFEF90DF90CF90BB
:02202E00089513
:10203000CF93DF93EC01892B51F00E94FB1060E0FD
:10204000CE010E9460070E94AD03811102C00E9470
:082050005E0CDF91CF910895B1
:10205800AA1BBB1B51E107C0AA1FBB1FA617B707C6
:1020680010F0A61BB70B881F991F5A95A9F78095E2
:082078009095BC01CD01089513
:10208000CF93DF93EB016091AD067091AE06645F74
:102090007F4F0E94930E61E0CE010E946007DF91A6
:0420A000CF9108953F
:1020A4000FB6F8940F92A82FCB014A96A11DFC01FC
:1020B4009491A7FD90810F900FBE81E0911180E073
:0220C40008957D
:1020C600092E0394000C11F4882352F0BB0F40F440
:1020D600BF2B11F460FF04C06F5F7F4F8F4F9F4F80
:0220E60008955B
:1020E800DC01FC01672F71917723E1F7329704C077
:1020F8007C916D9370836291AE17BF07C8F3089502
:10210800CF93DF93EC018881882331F021960E94D8
:0E211800071189918111FBCFDF91CF910895BE
:10212600BB272A3051F4992342F4BDE2909580955D
:0E213600709561957F4F8F4F9F4F0C94880FCF
:10214400FC010396928381832FEF3FEF3483238333
:0C2154009683858390878783108208950E
:102160002091B106FC0120832091A7063091A8069A
:0621700032832183089573
:102176008091AD069091AE06009721F0FC0122A158
:062186002F5F22A3089563
:10218C00CCE3D6E00E94F90D88818230D8F30E940E
:04219C005E0CF8CF0E
:1021A00057FD03C0659175910895619171910895EE
:0E21B0005058BB27AA270E94190A0C946310EE
:0E21BE000E94C40E6894B1110C94F51008959F
:0E21CC0000240A941616170618060906089530
:0E21DA0000240A941216130614060506089532
:0E21E800E894BB2766277727CB0197F9089567
:0C21F6008091AF068F5F8093AF060895C4
:0C22020097F99F6780E870E060E00895A5
:08220E005D9BFECF8CB9089521
:08221600FC01118610860895F9
:08221E0081E08093B2060895EF
:082226000E943E090C946310B4
:06222E000E94A60B1895AA
:062234009FEF80EC08950D
:04223A000C94000000
:00000001FF
