:100000000C942A000C94AD000C94AD000C94AD003F
:100010000C94AD000C94AD000C9454000C94AD0005
:100020000C94AD000C94AD000C94AD000C94AD009C
:100030000C94AD000C94AD000C94AD000C94AD008C
:100040000C94AD000C94AD000C94AD000C94AD007C
:100050000C94AD0011241FBECFE5D8E0DEBFCDBFAC
:10006000E4E5F0E040E017C0B591A5913591259108
:10007000059107FD0CC095918591EF01F92FE82FAF
:1000800005900D92A217B307D9F7FE0104C01D9287
:10009000A217B307E1F7E435F40731F70E946400D3
:0800A0000C945200F894FFCF0C
:1000A8001F920F920FB60F9211248F9386B58BBBB8
:1000B80087B588BB8F910F900FBE0F901F90189532
:1000C80081E00E948C0081E00E94950065E081E05B
:0E00D8000E94730081E00E9482007894FFCFA6
:1000E600CF93C62F0E949E008FB580688FBD8FB5B7
:0E00F60080648FBD8C2F0E94A600CF910895CC
:10010400882321F089B7806289BF089589B78F7DDC
:0401140089BF089502
:10011800882329F0813021F48FEF8ABB08951ABA19
:02012800089538
:10012A00882329F0813021F48FEF87BB089517BA0D
:02013A00089526
:10013C008EB588608EBD89E09DE39BBD8ABD089518
:0E014C009EB5987F9EBD9EB5892B8EBD0895F1
:04015A000C94000001
:00000001FF
