:100000000C942A000C9454010C9454010C94540147
:100010000C9454010C9454010C9454010C9454010C
:100020000C9454010C9454010C9414010C9454013C
:100030000C9454010C9454010C9454010C945401EC
:100040000C9454010C9454010C9454010C945401DC
:100050000C94540111241FBECFE5D8E0DEBFCDBF04
:10006000E4E5F0E040E017C0B591A5913591259108
:10007000059107FD0CC095918591EF01F92FE82FAF
:1000800005900D92A217B307D9F7FE0104C01D9287
:10009000A217B307E1F7E435F40731F70E945400E3
:0800A0000C945200F894FFCF0C
:1000A8000E94320161E083E00E94A80083B7806269
:1000B80083BF83B78F7E83BF65E083E00E944401DE
:1000C80078940E94FE0096E085E29CBF2FEF33ED06
:1000D80040E3215030404040E1F700C000008CBFB1
:1000E8002FEF33ED40E3215030404040E1F700C0AE
:0400F8000000EBCF4A
:1000FC00813069F028F08230B1F08330E9F0089556
:10010C0083B7877B83BF81E00E941E01089583B76C
:10011C008F7B83BF83B7886083BF86E08CBF81E011
:10012C000E942801089583B7877F83BF83B78064BB
:10013C0083BF86E08CBF089583B7886483BF86E055
:04014C008CBF0895C7
:10015000662379F06130D1F447B321E030E0B90192
:1001600002C0660F771F8A95E2F7CB01842B87BB0D
:10017000089547B321E030E0B90102C0660F771F50
:0E0180008A95E2F7CB018095842387BB089512
:10018E00662379F06130D1F441B321E030E0B9015A
:10019E0002C0660F771F8A95E2F7CB01842B81BBD5
:1001AE00089541B321E030E0B90102C0660F771F18
:0E01BE008A95E2F7CB018095842381BB0895DA
:1001CC00CF93C82FC1988BB38F709C2F907F892BA6
:1001DC008BBB0E943B018BB3282F2F7030E1C39F48
:1001EC00C0011124822B8BBB0E943B01CF9108953F
:1001FC008AB3806F8ABB87B3866087BB82E00E941C
:10020C00E60088E20E94E6008FE00E94E60086E0AD
:0C021C000E94E60082E00E94E6000895C7
:100228001F920F920FB60F9211240F900FBE0F90CE
:040238001F90189566
:10023C00882321F089B7816089BF089589B78E7FA3
:04024C0089BF0895C9
:10025000882321F089B7826089BF089589B78D7F8F
:0402600089BF0895B5
:1002640060E081E00E94C70060E082E00E94C70075
:020274000895EB
:10027600C29A8FE19EE40197F1F700C00000C29890
:020286000895D9
:10028800CF93C62F0E947E008C2F0E944D01CF91E4
:020298000895C7
:0E029A0093B7987F93BF93B7892B83BF0895C6
:0402A8000C940000B2
:00000001FF
