:100000000C942A000C94AF000C9484010C9484018D
:100010000C9484010C9484010C9484010C9484014C
:100020000C9484010C9484010C944A010C94840176
:100030000C9484010C9484010C9484010C9484012C
:100040000C9484010C9484010C9484010C9484011C
:100050000C94840111241FBECFE5D8E0DEBFCDBFD4
:10006000E4E5F0E040E017C0B591A5913591259108
:10007000059107FD0CC095918591EF01F92FE82FAF
:1000800005900D92A217B307D9F7FE0104C01D9287
:10009000A217B307E1F7E435F40731F70E945400E3
:0800A0000C945200F894FFCF0C
:1000A8000E94680161E083E00E94D30083B7806307
:1000B80083BF65E083E00E947101789481E00E942B
:1000C8008101882361F08CB7865F8CBF2FEF84E3B2
:1000D8009CE0215080409040E1F700C0000082E0A1
:1000E8000E948101882351F38CB78A508CBF2FEF6F
:1000F80084E39CE0215080409040E1F700C000007C
:02010800DDCF49
:10010A00813069F028F08230B1F08330E9F0089547
:10011A0083B7877B83BF81E00E945401089583B728
:10012A008F7B83BF83B7886083BF84E68CBF81E0FF
:10013A000E945E01089583B7877F83BF83B7806477
:10014A0083BF84E68CBF089583B7886483BF84E63F
:04015A008CBF0895B9
:10015E001F920F920FB60F9211242F933F934F932E
:10016E005F936F937F938F939F93AF93BF93EF9311
:10017E00FF930E941101FF91EF91BF91AF919F915B
:10018E008F917F916F915F914F913F912F910F9032
:08019E000FBE0F901F90189591
:1001A600662379F06130D1F447B321E030E0B9013C
:1001B60002C0660F771F8A95E2F7CB01842B87BBB7
:1001C600089547B321E030E0B90102C0660F771FFA
:0E01D6008A95E2F7CB018095842387BB0895BC
:1001E400662379F06130D1F441B321E030E0B90104
:1001F40002C0660F771F8A95E2F7CB01842B81BB7F
:10020400089541B321E030E0B90102C0660F771FC1
:0E0214008A95E2F7CB018095842381BB089583
:1002220083E00E941E0182E00E94290187E00E9471
:0A023200290186E00E9434010895BE
:10023C0098B321E030E002C0220F331F8A95E2F719
:06024C00292728BB0895DC
:1002520095B321E030E002C0220F331F8A95E2F706
:06026200292725BB0895C9
:1002680092B321E030E002C0220F331F8A95E2F7F3
:06027800292722BB0895B6
:10027E0020B330E0A90102C0559547958A95E2F763
:06028E00CA018170089511
:100294001F920F920FB60F9211240F900FBE0F9062
:0402A4001F901895FA
:1002A800882321F089B7816089BF089589B78E7F37
:0402B80089BF08955D
:1002BC00882321F089B7826089BF089589B78D7F23
:0402CC0089BF089549
:1002D00060E081E00E94F20060E082E00E94F200B3
:0202E00008957F
:1002E200CF93C62F0E9485008C2F0E947A01CF9156
:0202F20008956D
:0E02F40093B7987F93BF93B7892B83BF08956C
:060302000E943F01089576
:040308000C94000051
:00000001FF
