:100000000C942A000C94FB030C94FB030C94FB034C
:100010000C94FB030C94FB030C94FB030C94FB0368
:100020000C94FB030C94FB030C94FB030C94FB0358
:100030000C94FB030C942A010C94FB030C94FB031B
:100040000C94FB030C94FB030C94FB030C94FB0338
:100050000C94FB0311241FBECFE5D8E0DEBFCDBF5B
:10006000E4E5F0E040E017C0B591A5913591259108
:10007000059107FD0CC095918591EF01F92FE82FAF
:1000800005900D92A217B307D9F7FE0104C01D9287
:10009000A217B307E1F7E435F40731F70E941B021A
:0800A0000C945200F894FFCF0C
:1000A80010C00E94D90358F00E94D20340F029F4EE
:1000B8005F3F29F00C94E70351110C94E1030C9471
:1000C800F8030E94F90168F39923B1F3552391F3DA
:1000D800951B550BBB27AA2762177307840738F0AF
:1000E8009F5F5F4F220F331F441FAA1FA9F335D00C
:1000F8000E2E3AF0E0E832D091505040E695001CC0
:10010800CAF72BD0FE2F29D0660F771F881FBB1F79
:10011800261737074807AB07B0E809F0BB0B802D57
:10012800BF01FF2793585F4F3AF09E3F510578F083
:100138000C94E7030C94E1035F3FE4F3983ED4F397
:10014800869577956795B795F7959F5FC9F7880F57
:10015800911D9695879597F90895E1E0660F771FA9
:10016800881FBB1F621773078407BA0720F0621B3A
:0E017800730B840BBA0BEE1F88F7E095089509
:1001860011C00E94D20338F00E94D90320F039F43E
:100196009F3F19F426F40C94F8030EF4E095E7FB60
:1001A6000C94E703E92F0E94F90158F3BA17620786
:1001B60073078407950720F079F4A6F50C94E003FD
:1001C6000EF4E0950B2EBA2FA02D0B01B90190016C
:1001D6000C01CA01A0011124FF27591B99F0593FB0
:1001E60050F4503E68F11A16F040A22F232F342FF8
:1001F6004427585FF3CF469537952795A795F04046
:100206005395C9F77EF41F16BA0B620B730B840B5A
:10021600BAF09150A1F0FF0FBB1F661F771F881F12
:10022600C2F70EC0BA0F621F731F841F48F487956A
:1002360077956795B795F7959E3F08F0B0CF93955C
:0E024600880F08F09927EE0F97958795089579
:100254001F920F920FB60F9211242F933F934F9337
:100264005F936F937F938F939F93AF93BF93CF933A
:10027400EF93FF93CCB1C23469F018F4C13431F078
:1002840013C0C33459F0C43469F00EC083E00E9433
:10029400F4020AC082E00E94F40206C087E00E94D1
:1002A400F40202C00E949A038C2F0E943203FF9131
:1002B400EF91CF91BF91AF919F918F917F916F916A
:1002C4005F914F913F912F910F900FBE0F901F9010
:0202D40018957B
:1002D600E89409C097FB3EF49095809570956195DA
:1002E6007F4F8F4F9F4F9923A9F0F92F96E9BB2790
:1002F6009395F695879577956795B795F111F8CF0C
:10030600FAF4BB0F11F460FF1BC06F5F7F4F8F4F76
:100316009F4F16C0882311F096E911C0772321F06C
:100326009EE8872F762F05C0662371F096E8862F04
:1003360070E060E02AF09A95660F771F881FDAF75B
:0A034600880F9695879597F90895A2
:100350000E94010288F09F5798F0B92F9927B75152
:10036000B0F0E1F0660F771F881F991F1AF0BA9559
:10037000C9F714C0B13091F00E94E003B1E00895D4
:100380000C94E003672F782F8827B85F39F0B93FC6
:10039000CCF3869577956795B395D9F73EF490950C
:0E03A0008095709561957F4F8F4F9F4F089508
:1003AE00BC018AB188618AB9579A072E000C880B56
:1003BE00990B0E946D019B01AC0160E074E284E731
:1003CE0099E40E94F10320E030E040E85FE30E94F0
:1003DE00C4030E94CB036F3F710511F00CF070BD8A
:0403EE0069B908954C
:1003F20057FD9058440F551F59F05F3F71F04795D4
:10040200880F97FB991F61F09F3F79F087950895B8
:10041200121613061406551FF2CF4695F1DF08C0D7
:10042200161617061806991FF1CF869571056105F4
:04043200089408958D
:100436000E9462030E94B2030E94780380E895E25C
:100446000E94D7018FEF8ABB789480E00E94F50363
:100456008823D9F381E40E94ED032FEF83EC99E022
:0E046600215080409040E1F700C00000EECF32
:10047400662379F06130D1F447B321E030E0B9016B
:1004840002C0660F771F8A95E2F7CB01842B87BBE6
:10049400089547B321E030E0B90102C0660F771F29
:0E04A4008A95E2F7CB018095842387BB0895EB
:1004B200662379F06130D1F448B321E030E0B9012C
:1004C20002C0660F771F8A95E2F7CB01842B88BBA7
:1004D200089548B321E030E0B90102C0660F771FEA
:0E04E2008A95E2F7CB018095842388BB0895AC
:1004F000662379F06130D1F444B321E030E0B901F2
:1005000002C0660F771F8A95E2F7CB01842B84BB6C
:10051000089544B321E030E0B90102C0660F771FAF
:0E0520008A95E2F7CB018095842384BB089571
:10052E00662379F06130D1F445B321E030E0B901B2
:10053E0002C0660F771F8A95E2F7CB01842B85BB2D
:10054E00089545B321E030E0B90102C0660F771F70
:0E055E008A95E2F7CB018095842385BB089532
:10056C00662379F06130D1F441B321E030E0B90178
:10057C0002C0660F771F8A95E2F7CB01842B81BBF3
:10058C00089541B321E030E0B90102C0660F771F36
:0E059C008A95E2F7CB018095842381BB0895F8
:1005AA00662379F06130D1F442B321E030E0B90139
:1005BA0002C0660F771F8A95E2F7CB01842B82BBB4
:1005CA00089542B321E030E0B90102C0660F771FF7
:0E05DA008A95E2F7CB018095842382BB0895B9
:1005E800833049F018F4823059F00895863091F03C
:1005F800873059F0089561E083E00E945902089518
:1006080061E082E00E949702089561E087E00E941D
:0E0618009702089561E086E00E94D5020895E1
:10062600833049F018F4823059F00895863091F0FD
:10063600873059F0089560E083E00E9459020895DA
:1006460060E082E00E949702089560E087E00E94E1
:0E0656009702089560E086E00E94D5020895A4
:10066400CF93C82FC19A8BB38F709C2F907F892B07
:100674008BBB0E94BB038BB3282F2F7030E1C39F29
:10068400C0011124822B8BBB0E94BB03CF91089520
:10069400CF93C82FC1988BB38F709C2F907F892BD9
:1006A4008BBB0E94BB038BB3282F2F7030E1C39FF9
:1006B400C0011124822B8BBB0E94BB03CF910895F0
:1006C4008AB3806F8ABB87B3866087BB82E00E944F
:1006D4004A0388E20E944A038FE00E944A0386E0AC
:0C06E4000E944A0382E00E944A0308952D
:1006F00061E083E00E943A0261E082E00E947802B9
:1007000061E087E00E94780261E086E00E94B60224
:0207100008954A
:10071200092E0394000C11F4882352F0BB0F40F40D
:10072200BF2B11F460FF04C06F5F7F4F8F4F9F4F4D
:02073200089528
:1007340083E00E94130382E00E94130387E00E9477
:0A074400130386E00E9413030895DA
:10074E0023B330E0A90102C0559547958A95E2F78B
:06075E00CA01817008953C
:1007640060E080E00E94780260E081E00E9478020C
:020774000895E6
:10077600C29A8FE19EE40197F1F700C00000C2988B
:020786000895D4
:0E0788005058BB27AA270E94C3000C94890377
:0E0796000E94A8016894B1110C94E10308952B
:0E07A40000240A941616170618060906089572
:0E07B20000240A941216130614060506089574
:0E07C000E894BB2766277727CB0197F90895A9
:0C07CE0097F99F6780E870E060E00895F4
:0807DA005D9BFECF8CB9089570
:0807E2000E9454000C948903ED
:0607EA000E94A703089520
:0607F0009FEF80EC08956C
:0407F6000C9400005F
:00000001FF
